:100000000C94E4030C941C040C941C040C941C0429
:100010000C941C040C941C040C941C040C941C04E0
:100020000C941C040C941C040C945F2C0C94332D25
:100030000C94DB260C941C040C941C040C941C04DF
:100040000C941C040C941C040C941C040C941C04B0
:100050000C941C040C9462270C941C040C941C0437
:100060000C941C040C941C040C941C040C941C0490
:100070000C941C040C941C040C941C040C941C0480
:100080000C941C040C941C040C941C040C941C0470
:100090000C941C040C941C040C941C040C941C0460
:1000A0000C941C040C941C040C941C0435001E00BD
:1000B0001F0020002100220023002400250026002C
:1000C00027002D002E002A0049004A004B002B007B
:1000D00014001A000800150017001C0018000C007E
:1000E000120013002F00300031004C004D004E0074
:1000F000E00004001600070009000A000B000D00D4
:100100000E000F0033003400280000000000000043
:100110000000E1001D001B00060019000500110091
:100120001000360037003800E100004100000000F8
:1001300052000000E000E300E200000000002C009C
:100140000000000000000000E200E700E000000006
:10015000500051004F0035003A003B003C003D008C
:100160003E003F0040004100420043004400450083
:1001700001002078237827780100010001000100A8
:100180000100010001000100490047004800520041
:10019000010001002178247828783900AA00A900FC
:1001A000A800010001000100010001000100500051
:1001B0004F000100000000000000000001006A0084
:1001C000AC00AB00010001000100010001000100D2
:1001D00051000100010000000000010000000100CA
:1001E000010001000000000001000000000000000C
:1001F00000000100007C010000000100010001007E
:1002000001000100010001000100010001000100E6
:1002100001000100010001000100010001000100D6
:1002200001000100010001000100010001000100C6
:1002300001000100010001000100010001000100B6
:1002400001000100010001000100010001000100A6
:100250000100010001000100010001000100000097
:100260000000000000000100010001000100010089
:100270000100010001000100010001000100010076
:10028000000000000100000001000100010000006A
:10029000000001000000000000000000010001005B
:1002A0000100000001000100010001000100010047
:1002B0000100010001000100010001000100010036
:1002C0000100010001000100010001000100010026
:1002D0000100010001000100010001000100010016
:1002E0000100010001000100010001000100010006
:1002F00001000100010001000100010001000100F6
:1003000001000100010001000000000000000000E9
:1003100001000100010001000100010001000100D5
:1003200001000100010001000100000000000100C7
:1003300000000100010001000000000001000000B9
:1003400000000000000001000100010000000100A9
:10035000010001001E0F0500047F3F1F643214647A
:100360003214783C1E1E140A052223252628292A29
:100370002C2D2F3032333536383A3B3D3E40424308
:100380004547494A4C4E5051535557595A5C5E6047
:1003900062646668696B6D6F71737577797B7D7F59
:1003A00081838587898A8C8E90929496989A9C9E58
:1003B0009FA1A3A5A7A8AAACAEAFB1B3B4B6B8B974
:1003C000BBBCBEBFC1C2C3C5C6C7C9CACBCCCDCEDC
:1003D000D0D1D2D2D3D4D5D6D7D7D8D9D9DADADBBF
:1003E000DBDBDCDCDCDCDCDDDDDDDDDCDCDCDCDC4B
:1003F000DBDBDBDADAD9D9D8D7D7D6D5D4D3D2D28A
:10040000D1D0CECDCCCBCAC9C7C6C5C3C2C1BFBE71
:10041000BCBBB9B8B6B4B3B1AFAEACAAA8A7A5A3DC
:10042000A19F9E9C9A98969492908E8C8A8987859B
:1004300083817F7D7B79777573716F6D6B6968667A
:100440006462605E5C5A5957555351504E4C4A494C
:1004500047454342403E3D3B3A3836353332302FF4
:100460002D2C2A292826252322FFAA7F554000016A
:100470000101010101010101020202020202020264
:100480000203030303030303030404040404040436
:1004900005050505050606060606070707070708FA
:1004A000080808090909090A0A0A0B0B0B0C0C0CAD
:1004B0000D0D0D0E0E0E0F0F0F1010111111121247
:1004C00013131414151516161717181819191A1AC4
:1004D0001B1B1C1D1D1E1E1F202021222223242425
:1004E000252626272829292A2B2C2D2D2E2F303161
:1004F0003232333435363738393A3B3C3D3E3F4073
:100500004142434445464748494A4C4D4E4F50515D
:100510005354555658595A5B5D5E5F616264656617
:1005200068696B6C6D6F7072737577787A7B7D7E9E
:100530008082838587888A8C8E8F91939596989AEE
:100540009C9EA0A2A3A5A7A9ABADAFB1B3B5B7BA06
:10055000BCBEC0C2C4C6C9CBCDCFD1D4D6D8DBDDDA
:10056000DFE2E4E7E9EBEEF0F3F5F8FAFDFF000077
:100570000000000000002A2B2800000000000000FE
:1005800000000000000000000029000000002C1EF8
:100590003420212224342627252E362D3738271EB5
:1005A0001F202122232425263333362E37381F04DB
:1005B00005060708090A0B0C0D0E0F101112131473
:1005C00015161718191A1B1C1D2F3130232D350431
:1005D00005060708090A0B0C0D0E0F101112131453
:1005E00015161718191A1B1C1D2F3130354C000019
:1005F00000000000000000000000000000000000FB
:1006000000000000000000000000000000000000EA
:1006100000007E0F00D4FFFFFFC70000007810032A
:100620006E00690067006800740037003000000049
:100630000C03740069006D0061006C00000004038D
:10064000090409025B00030100A0FA09040000018B
:100650000301010009211101000122400007058169
:100660000308000109040100020300000009211130
:100670000100012222000705820320000107050373
:1006800003200001090402000103000000092111F8
:1006900001000122B60007058403200001120100B9
:1006A000020000000827116360010001020001063A
:1006B00060FF0961A1010962150026FF0095207500
:1006C0000881020963150026FF0095207508910234
:1006D000C005010902A10185020901A1000509194E
:1006E00001290815002501950875018102050109F8
:1006F0003009311581257F95027508810609381565
:1007000081257F950175088106050C0A380215813F
:10071000257F950175088106C0C005010980A101EA
:10072000850319012AB700150126B7009501751038
:100730008100C0050C0901A101850419012AA0024C
:10074000150126A002950175108100C0050109065A
:10075000A1018506050719E029E71500250195087F
:10076000750181020507190029EF1500250195F093
:100770007501810205081901290595057501910288
:10078000950175039101C005010906A1010507192D
:10079000E029E7150025019508750181029501758D
:1007A0000881010507190029FF150026FF0095069D
:1007B0007508810005081901290595057501910243
:1007C000950175039101C00011241FBECFEFDAE03F
:1007D000DEBFCDBF04B603FE18C080918D0390919B
:1007E0008E03A0918F03B09190038730904BA74068
:1007F000B04B59F410928D0310928E0310928F0318
:1008000010929003E0E0F8E3099511E0A0E0B1E078
:10081000E4E7F2E602C005900D92A03FB107D9F7D8
:1008200023E0A0EFB1E001C01D92AD38B207E1F7BF
:100830000E9431140C94D1300C94000084E008958F
:100840008430B8F46530A8F4413198F450E091E177
:10085000699F400D511D1124FA0195E5899FE00D16
:10086000F11D1124EE0FFF1FE455FF4F8591949168
:10087000089581E090E0089581E008950E943C048D
:10088000089581E008950E943C0408950E94430465
:10089000089508950E9449040895A6E0B0E0E3E5B4
:1008A000F4E00C947D2F49835A839E833091F701A5
:1008B00089819A8131111AC03E81332399F0222314
:1008C00089F00E94310A182F682F89819A810E942D
:1008D0000D0A69817A81812F0E9464112696E3E0D6
:1008E0000C94992F0E941F0A182FF3CF0E94310AEF
:1008F00069817A81F1CFFC01262F4081518162818B
:100900007381848195810E944D040895CF93DF9374
:10091000EC0161E00E947B04BE010E943E04DF9175
:10092000CF910895CF93DF93EC0160E00E947B04A8
:10093000BE010E944A04DF91CF91089508950E945C
:1009400009090E949E042FEF84E39CE0215080401F
:100950009040E1F700C0000008950E949F040E94AB
:10096000862708950E949F040E94AA2708950F9346
:100970001F93CF93DF938C0161E00E947B04EC0115
:10098000B8010E94661F811106C080E0DF91CF91FF
:100990001F910F910895B801CE010E94460488234B
:1009A000A1F3B801CE010E94B124882371F3B801EC
:1009B000CE010E94D820882341F3B801CE010E94C5
:1009C0002324882311F3B801CE010E94601E8823DE
:1009D000E1F2B801CE010E94F5248823B1F2F801BA
:1009E0008581882361F0C330FCE7DF07E9F058F424
:1009F000C115ECE7DE07A9F0C130DC47B9F0C8014A
:100A00000E944104C3CFCB358CE7D807A9F0CC3581
:100A1000ECE7DE0771F0CA35DC4789F70E94890EE2
:100A2000EECF0E94AD04B1CF0E94910E0E94B2049D
:100A3000ACCF0E947F0EE3CF0E948D0EE0CF0E94CC
:100A4000B5260E944D0508950E9451050E94BA26C0
:100A50000895089581E0089581FD02C0299A0895BE
:100A600029980895CF93DF93D82F0E942A05C82F85
:100A7000882319F08D2F0E942C058C2FDF91CF91A8
:100A80000895219A299A0895CF93C82F0E94290585
:100A90008C2F0E943205CF91089580E00E9444057A
:100AA00008950E9448250E9444050895CF930E940E
:100AB0004825C82F8091F2018C1779F0C093F2017C
:100AC0000E9447276093F3017093F4018093F5012E
:100AD0009093F6018C2F0E944405CF910895ADE0CC
:100AE000B0E0E5E7F5E00C947E2F488759876A87E8
:100AF0007B878C879D8791110E94B70D1F8286E0AE
:100B0000FE013896DE01119601900D928A95E1F76B
:100B10008D8181110DC029813A814B815C816D816C
:100B20007E818F810E94EA0C2D96E2E00C949A2F30
:100B3000CE0101960E9486048111EDCFF5CFFC0114
:100B40002481213021F4808191810E945E0A0895E0
:100B5000662329F00E94B5140E94881508950E940A
:100B60000F15FACFCF93C82F8823C9F08238C9F464
:100B70000E94482581FD13C089E30E946F0D0E94E9
:100B8000F00D2FEF87EE93E0215080409040E1F789
:100B900000C0000089E30E94770D0E94F00DCF9104
:100BA00008958338A1F40E94482580FDF8CF83E59D
:100BB0000E946F0D0E94F00D2FEF81EE94E0215006
:100BC00080409040E1F700C0000083E5E4CF843826
:100BD000A1F40E94482582FDE2CF87E40E946F0DB8
:100BE0000E94F00D2FEF81EE94E021508040904064
:100BF000E1F700C0000087E4CECF8CEF8C0F813A84
:100C000090F46C2F80910401909105010E94DB25E6
:100C1000882329F08C2F0E94770D0E94F00D8C2FD5
:100C20000E946F0DBACF80E28C0F883048F4C770F5
:100C300081E001C0880FCA95EAF70E949A0DADCFF6
:100C4000EBE5EC0FE33040F4F0E0ED59FE4F80812E
:100C500090E00E947D25A3CFE8E5EC0FEB3150F446
:100C6000F0E0EE0FFF1FE35DFE4F808191810E9457
:100C7000A22595CF83E38C0F833108F090CF61E0FC
:100C80008C2F0E94A8058BCF882309F456C0823888
:100C900079F40E94482581FF50C089E30E946F0DBE
:100CA0000E94F00D89E30E94770D0E94F00D0895D7
:100CB000833859F40E94482580FF3FC083E50E9495
:100CC0006F0D0E94F00D83E5EECF843859F40E9439
:100CD000482582FF32C087E40E946F0D0E94F00D0C
:100CE00087E4E1CF9CEF980F913AE8F290E2980FF9
:100CF000983050F4877091E001C0990F8A95EAF717
:100D0000892F0E94A00DD1CF9BE5980F933028F436
:100D100090E080E00E947D25089598E5980F9B3132
:100D200028F490E080E00E94A225089593E3980FB4
:100D3000933118F460E00E94A80508951F93CF93A3
:100D4000DF93182FEB010E94B205209739F4812F11
:100D50000E944406DF91CF911F9108958FE99FE093
:100D60000197F1F700C000002197EFCF70E060E03D
:100D7000893311F460E570E00E949E06089588238F
:100D800021F00E949A0D0E94F00D0895882321F011
:100D90000E94A00D0E94F00D0895B0E0A0E0E3EDE8
:100DA000F6E00C94772F6C01D62FC72FFC0115812C
:100DB000068102950F700E94900DE82E8823E9F0BD
:100DC000E12E1123D1F08C2F807F803451F080E20E
:100DD0008D0F8830F8F0011104C08C2F807E803296
:100DE000C9F08091330382FF15C082E00E94530E48
:100DF0000E94900D91E0E82EE926BC2EB2949FE06F
:100E0000B922FBE0FB15B8F1EB2DF0E0ED52FF4C01
:100E10000C94302FE12CF1CF0C2F0F70C07F11F00C
:100E20000295007F112399F0002359F080E28D0F85
:100E3000883010F0D11107C0802F0E949A0D0E94B7
:100E4000F00D8D2F5AC0802F0E94AA0DF8CF8D2F44
:100E50000E944406002379F080E28D0F883010F064
:100E6000D11104C0802F0E94A00D03C0802F0E94CA
:100E7000B00D0E94F00DEB2DE850FF0B349720F4DD
:100E80000E9448250E944405EE2089F00E948C0DA6
:100E900080FD0DC0F60115820E94860D0E94810919
:100EA000C6010E94D0080E94860D0E948D09CDB710
:100EB000DEB7E9E00C94932F2C2F2F70F22EC07F19
:100EC000C03219F0F29480EFF822DD2341F0D130E6
:100ED000D1F1112309F444C00023F1F0B2CF809185
:100EE000330382FD15C0112359F0FF2029F08F2D07
:100EF0000E949A0D0E94F00D80E00E94B205BBCFC7
:100F000080E00E944406FF2009F4B5CF8F2DABCFBF
:100F1000112369F0011104C08F2D0E94BF06ABCFD1
:100F2000013009F0A8CF8F2D0E94CE0DA4CF011162
:100F3000A2CF8F2D0E94C6068F2D0E94DA0D8F2D15
:100F40000E94BE0D98CF112321F0063008F093CFF8
:100F5000E3CF053008F08FCF8F2D0E94C6068BCFD0
:100F60000023D1F3D93349F43FEF87EE93E03150BA
:100F700080409040E1F700C000008D2F0E944406A1
:100F80007ACF8C2F86958695837069F0813009F031
:100F900072CF8D2F9C2F9370111102C080E090E0D2
:100FA0000E94A22568CF8D2F9C2F9370111102C033
:100FB00080E090E00E947D255ECF612F8D2F0E9402
:100FC000A80559CF8C2F837079F5111154CF4D2F6F
:100FD000429546954770440F440F8D2F8F70042E15
:100FE00001C0880F0A94EAF72D2F2071D4FF07C0A3
:100FF0002FE030E001C0220F4A95EAF72095C69510
:10100000C695C370822BC23049F058F4C13019F034
:101010000E945D0930CF0E9457092DCF0E946309BD
:101020002ACF0E94540927CF8695112311F08C2FC7
:101030008170882309F41FCF4D2F42954695477044
:10104000440F440F8D2F8F70042E01C0880F0A9417
:10105000EAF72D2F2071D4FF07C02FE030E001C048
:10106000220F4A95EAF72095C695C695C370822B44
:10107000C23049F058F4C13019F00E94AC09FBCEDF
:101080000E94A609F8CE0E94B209F5CE0E946F090F
:10109000F2CECF70112329F08C2F0E9481098D2F61
:1010A0003CCF8D2F0E94C6068C2F0E948D09E3CE67
:1010B000D23F41F160F4D03FB9F0D13F81F011232C
:1010C00009F446C00111BDCE8C2F8F711FC0D33FD4
:1010D00001F1D43FA1F78091330382FD24C08C2F0E
:1010E0008F71112311F312C0112341F0053008F064
:1010F000C2CE8C2F8F710E949A09BDCE063008F0A7
:10110000BACEF7CF8C2F8F711111CFCF0E948109EA
:10111000B2CE112329F08C2F8F710E947809ABCEAB
:101120000E947409A8CE112349F0CF718C2F0E9420
:10113000810963E08C2F0E94350E9DCE81E00E94D4
:10114000530E023008F497CE82E00E94530E93CEE5
:10115000002359F0D93309F010CFEFEFF7EE23E079
:10116000E150F0402040E1F706CF8C2F8F719DCFEA
:101170000F931F93CF93DF93EC01688179818D8169
:101180000E94690A8C010E94B8090E945309B801A3
:10119000CE010E94CD06DF91CF911F910F9108954E
:1011A000CF93DF93EC018C81882399F0CE010E94CC
:1011B000B704811111C00E94900D882351F08D81D8
:1011C000882339F08091330382FF03C082E00E94BC
:1011D000530EDF91CF910895CE010E94B808CE0141
:1011E0000E949204F6CF90E080E00E947D2590E07E
:1011F00080E00E94A2250E94B70D0E94F00D0E947F
:10120000A4150E94881508950E947F0D0E94F3087E
:1012100008950E94A70D0E940409089592959F7059
:10122000963091F058F4925F9F70923058F4803F5E
:1012300019F030F4883E30F481E008959A5FF4CFDD
:10124000843FD1F380E00895883EB0F3813FD1F729
:10125000F3CFFC012481222339F0808191810E9407
:101260005E0A0E940E09089580E00895A6E0B0E0AD
:10127000ECE3F9E00C947E2F2696E2E00C949A2F92
:10128000A7E0B0E0E6E4F9E00C947E2F2796E2E0D8
:101290000C949A2F08950E944A0908950E944B09C0
:1012A00080931A02089508950E944E09089590911E
:1012B0001A02892B0E944E09089590911A028923DF
:1012C0000E944E09089590911A0289270E944E09A2
:1012D00008950E944A0908950E94690908950E948C
:1012E0006C0980931902089580E00E946F090895A7
:1012F00091E001C0990F8A95EAF7892F0E946F0942
:10130000089521E030E001C0220F8A95EAF780912C
:101310001902822B0E946F09089521E030E001C07C
:10132000220F8A95EAF720958091190282230E9464
:101330006F09089521E030E001C0220F8A95EAF795
:101340008091190282270E946F09089590911902D5
:10135000892B0E946F0908959091190289230E9498
:101360006F0908959091190289270E946F090895C5
:101370000895262F277091E001C0990F2A95EAF76A
:1013800023E0769567952A95E1F7FB01EE0FFF1FA5
:10139000E60FF71FE40FF51F50E040E0682F70E004
:1013A0008191DF0111979B01042E02C0369527958C
:1013B0000A94E2F7217021952827292328272C93C6
:1013C0004F5F5F4F4330510559F70895A82FA7701D
:1013D00023E0969587952A95E1F7FC01EE0FFF1F14
:1013E000E80FF91FE60FF71F50E040E080E0219181
:1013F00030E00A2E02C0369527950A94E2F7217054
:101400003327042E01C0220F0A94EAF7822B4F5F84
:101410005F4F4330510559F70895262F953070F4EA
:10142000813160F4682F70E081E1989F600D711D3B
:10143000112448EF51E0822F0E94B9090895292F05
:10144000953068F4813158F490E068EF71E031E153
:10145000239F800D911D11240E94E609089580E0CC
:101460000895CF92DF92FF920F931F93CF93DF9354
:101470006C010091190280911A02082BC3E0D0E0A0
:1014800010E0FC2EC8010C2E02C0959587950A9499
:10149000E2F780FD0CC02197A0F7F12C8F2DDF9192
:1014A000CF911F910F91FF90DF90CF900895B601DB
:1014B0008C2F0E947011019771F3F0CFCF93DF93BF
:1014C000EC010E94310ABE010E947011DF91CF91A0
:1014D00008951F93CF93DF93EB019091F701992328
:1014E00039F0CB010E945E0ADF91CF911F910895E0
:1014F000882369F0CB010E94310A182F682FCE0192
:101500000E940D0ABE01812F0E947011EDCFCB0108
:101510000E941F0A182FF6CFE1E0F0E0DF0102C0C1
:10152000AA0FBB1F6A95E2F7BD01DF0102C0AA0F37
:10153000BB1F4A95E2F76A2B01C0EE0F2A95EAF726
:10154000962F9823961302C08E2B0895E0958E2334
:101550000895242F462F682F809119020E948C0A2B
:101560000E946F0908951F93CF93DF93C0911B02D0
:1015700017E080911C028C1304C0DF91CF911F9162
:101580000895D0E01C9FF0011D9FF00D1124E35E33
:10159000FD4F208131814281538164817581868133
:1015A0000E9440092196C770E4CF209155023091E6
:1015B0005602409157025091580260915902709121
:1015C0005A0280915B020E9440090895CF93DF93F5
:1015D00080915B02807F09F04DC080915A02882380
:1015E00009F448C0E0911B0250911C02C0915602C0
:1015F000D0915502609157027091580247E05E17F2
:10160000C9F18E2F90E0E49FF0011124E35EFD4FBD
:101610002481222391F1489FF001499FF00D11246C
:10162000DF01A35EBD4F11962C9111972C1325C09D
:101630002C912D1322C015962C91159721111DC0A8
:1016400012962D913C91261B370B283C3105A8F4AE
:1016500080915B028F70806180935B02ED5DFD4F36
:1016600080818F708061808385E592E00E94D00840
:101670000E94B30ADF91CF910895FC013196E77083
:10168000BECF482F20911B0290911C0257E02913D6
:1016900002C080E0089530E0529FF001539FF00DAA
:1016A0001124E35EFD4F8181681306C080814813D9
:1016B00003C085818111EECF2F5F3F4F2770E7CFA9
:1016C000A4E1B0E0E6E6FBE00C94742F8C0186E028
:1016D000F801DE011F9601900D928A95E1F7F8015D
:1016E0008481E58095E5A92E92E0B92E909159026A
:1016F00091111FC08823D1F0EE20A9F0C8010E94EB
:101700002909F82E882379F087E0F801D5010190A6
:101710000D928A95E1F7C5010E949F050E94E60A95
:101720000E94D50A5FC0C8010E94D008FF24F3942C
:1017300059C0C080D18082809380F0905A0220915D
:10174000570230915802A401421B530BFF2009F4A9
:10175000F9C0483C510508F0A7C0882309F442C0ED
:101760009091560280915B02282F207F09F05CC087
:101770009D1116C090915502C91212C0E1104EC0C1
:101780008F70806180935B020E94D50A85E592E0AC
:101790000E94D00880915B02F8018683F12C22C060
:1017A000E1103CC06D2D8C2D0E94410B6D2D8C2DB8
:1017B0000E94410BE82E8111F1CFCF86D88A8F8508
:1017C00098890E945E0A292F22952F70243078F480
:1017D0009F702230A8F09923B9F0F8019681907F8C
:1017E00099F4FE2C8F2D6496ECE00C94902F2A5FD8
:1017F0002F70223068F0C8010E94D008EF2CF1CF82
:10180000992311F0882369F3805E883050F3F3CF79
:10181000803F38F3815F833070F7E3CF80915B02C4
:10182000816080935B02BACF9D1113C090915502E5
:10183000C9120FC0E1100DC08683C8010E94D008F4
:1018400087E0F801A5E5B2E001900D928A95E1F7F5
:1018500067CFC8010E942909882309F464CFEE20CC
:1018600009F461CF80915B02803288F020915502AB
:1018700030915602398728879B868A869091590233
:101880009C871D868E87CE0108960E94D00887E02F
:10189000F801A5E5B2E001900D928A95E1F70E946A
:1018A000E60A0E94D50A42CF90915B02292F207F41
:1018B000A1F4682D9A8A898AA6017A899E2D0E94B0
:1018C000360985E592E00E94D00887E0F501119283
:1018D0008A95E9F70E94D50A61CF882309F482CF5F
:1018E000809156028D1110C080915502C8120CC013
:1018F000E1100AC09683C8010E94D00887E0F50174
:1019000011928A95E9F76ECFC8010E9429098823B0
:1019100009F409CFEE2009F406CF80915B028032F2
:1019200008F4B5CF20915502309156023A832983AD
:101930009C828B82909159029D831E828F83CE015F
:101940000196A3CF483C5105B8F5882309F4EECEA3
:10195000FE2CEE2009F4E7CE809156028D111EC0B8
:1019600080915502C8121AC080915B0280FD0DC0A3
:10197000982F907F51F08683903F09F45ECF982F87
:10198000907F905F8F70892B57CF87E0F801A5E596
:10199000B2E001900D928A95E1F724CFC8010E9430
:1019A0002909811174CF80915B02816080935B0271
:1019B000C8010E94D00816CF682D9A8A898AA6018C
:1019C0007A899E2D0E94360987E0F50111928A9549
:1019D000E9F7A6CEAEE0B0E0E0EFFCE00C947D2F9E
:1019E000288739874A875B876C877D878E87CE01FA
:1019F00008960E94600B8823B1F06C85662341F045
:101A0000288539854A855B857D858E850E944009BC
:101A100017E080911B0290911C0289133DC02E9605
:101A2000E3E00C94992F87E0FE013896DE011196D1
:101A300001900D928A95E1F78C85882349F32091D6
:101A40001C0230E0C90101968770992740911B0262
:101A50004817190699F097E0929FD001939FB00D17
:101A60001124A35EBD4FFE01319601900D929A950F
:101A7000E1F780931C020E94B30ACACF0E940909B1
:101A800010921C0210921B0287E0E5E5F2E0DF01F4
:101A90001D928A95E9F7BCCF819FC0011124835E16
:101AA0009D4F0E94600B882309F4B9CFE0911B027F
:101AB0001E9FF0011124E35EFD4F208131814281A0
:101AC00053816481758186810E94400980911B0247
:101AD00090E001968770992780931B029ACF682F18
:101AE00080910401909105010E945B260895682F62
:101AF00080910401909105010E94692608958091CA
:101B00000401909105010E947726089580917C023E
:101B1000869586958695089580917C0287700895B4
:101B200090917C02977081E009F480E008958091A3
:101B3000A00208959091A002892B8093A00208959D
:101B400080959091A00298239093A00208951092FE
:101B5000A002089590919F02892B80939F0208957F
:101B6000809590919F02982390939F0208951092E0
:101B70009F02089508950E94BA0D089590917D02E4
:101B8000292F282331F08095892380937D020E949C
:101B9000BB0D089508950E94CA0D089590917E028C
:101BA000292F2823281729F0982B90937E020E9432
:101BB000CB0D089590917E02292F282331F0809536
:101BC000892380937E020E94CB0D089580917E022E
:101BD000882329F010927E0280E00E94CB0D0895A8
:101BE000CF93DF93E0910401F09105018091A00271
:101BF0008083E0910401F0910501808190919F0222
:101C0000892B808390917E02992381F0E0910401D9
:101C1000F09105018081892B80838091040190914E
:101C200005010E94C72581110E94E60DC0910401A3
:101C3000D091050140E250E06CE572E0CE010E94D7
:101C40004430892B59F080E2FE01ACE5B2E001900E
:101C50000D928A95E1F7CE010E945525DF91CF9133
:101C6000089508950E94310E08959091330392FFD4
:101C700011C098E0899F90011124622B60937C022F
:101C80000E94810980917C028695869586950E94A6
:101C9000320E08950E948109089510927C0280E01E
:101CA0000E94320E089590917C0280958923809342
:101CB0007C02282F277069F4891759F0909133031B
:101CC00092FF07C08695869586950E948D090E9491
:101CD0004D0E08959091330392FB222720F9281787
:101CE00069F080FB92F990933303809132039091D5
:101CF00033030E94B30E82E00E94530E0895809138
:101D0000330382FB882780F991E089270E946A0EBD
:101D1000089581E00E946A0E089580E00E946A0E94
:101D200008956FEF7FEF90E080E00E949C3008956F
:101D300090E080E00E946830863E9E4F19F40E9439
:101D4000FE1E089580E0089582E090E00E945A30DF
:101D5000089583E090E00E945A30089584E090E076
:101D60000E9468300895BC0184E090E00E949C309D
:101D70000895AB01BC018FE090E00E94903008957F
:101D8000AB01BC0183E190E00E949030089560E0D7
:101D900070E0CB010E94C00E089560E070E0CB01BE
:101DA0000E94B90E0E94C70E0895A8E0B0E0EBEDC6
:101DB000FEE00C947E2F66EE7EEF90E080E00E94C5
:101DC0009C3060E082E090E00E947E3060E083E042
:101DD00090E00E947E3010921A0260E074E184E08C
:101DE00090E00E949C3060E086E090E00E947E30AF
:101DF0006FEF87E090E00E947E3040E050E0BA0153
:101E000088E090E00E94903060E084E290E00E94E0
:101E10007E3060E087E190E00E947E3060E08CE000
:101E200090E00E947E3060E08DE090E00E947E3085
:101E300019821A821B821C821D821E821F821886B2
:101E400048E050E068E170E0CE0101960E946E30FB
:101E500040E050E0BA0180E290E00E94903080E0E3
:101E60000E94171F0E94461F0E94CD0E2896E2E096
:101E70000C949A2F0E94D50E0895682F8EE090E062
:101E80000E947E300895A6E0B0E0E9E4FFE00C9403
:101E90007C2F0E943B278C018091A1029091A2028D
:101EA0008017910781F019821A820E943B27682FC0
:101EB00049815A81792F80E090E00E946F0510934C
:101EC000A2020093A1022696E4E00C94982F0E94AF
:101ED00047276093BB027093BC028093BD0290932E
:101EE000BE026093B7027093B8028093B9029093D8
:101EF000BA020895089508950E947B0F08950895E9
:101F00000E947F0F089581E008958AE592E10E9482
:101F10003E250E947A0F0E947C0F08950E94830F35
:101F200008950E948E0F0895089508950E94940FB9
:101F30000E94950F08950E9479120E94410508950C
:101F40000E9432270E94561F0E9470130E949B0F0E
:101F50000E94511D0E94800F0895A8E0B0E0E3EBBD
:101F6000FFE00C946E2F0E94830F81110CC00E9421
:101F7000430F0E94A71D0E94C6150E945605289671
:101F8000E2E10C948A2F0E94861383EA92E09887FC
:101F90008F837C0110E0F701419051906190719026
:101FA0007F01812F0E949C121F5F153009F467C0CA
:101FB000461657066806790671F38091BF0281FDC7
:101FC0000E94A7120E94910F282E10E03324339410
:101FD000812F0E949C126B017C01EF81F88541905A
:101FE000519061907190F887EF83C414D504E60492
:101FF000F704F1F146265D2468267F2400E0812C59
:10200000912C54018394D301C20188219921AA21E2
:10201000BB21892B8A2B8B2BE9F02220D9F0098355
:102020001A830E943B279C838B833D8221E0D7014A
:10203000C60188219921AA21BB21892B8A2B8B2BB0
:1020400009F420E049815A816B817C818D81922F36
:102050000E946F050F5F880C991CAA1CBB1C0131E4
:1020600091F6EF81F8853497C082D182E282F382C3
:102070001F5F153009F0ACCF0E94670F7ACF46166C
:1020800057066806790609F098CF71CF1F93CF9352
:10209000DF930E947511EC01C11580E5D807F0F5BA
:1020A000C11580E4D80708F09CC0C03ED10520F5DA
:1020B000CD3CD10508F082C0C83AD10578F4C53AC4
:1020C000D10508F073C0C130D10519F1209709F18D
:1020D000C430D105F0F4D0E0C0E01BC0C33CD10552
:1020E000D0F7C85AD0E0CC0FDD1FCA59DE4F099097
:1020F000D881C02DD4640DC0C11580E2D80708F086
:10210000D1C0C11581E0D80708F05AC0C83ED1053A
:1021100010F7CE01DF91CF911F910895C03682E56F
:10212000D80718F5C03482E5D80708F06BC0C03274
:1021300082E5D80708F05FC0C11582E5D80708F42A
:1021400097C02C2F2695269580E2289F9001112478
:102150008C2F8370C1E0D0E002C0CC0FDD1F8A95C8
:10216000E2F7C22BD32BDD68D4CFC03A82E5D80783
:1021700060F4C03882E5D80708F459C0CF71D0E0C8
:10218000DC2FCC27C46FD06AC4CFC03C82E5D8070F
:1021900008F462C0C03E82E5D80708F09CCFDC2F6F
:1021A000CC27CC27DF71C06FD06AB3CFC55AD0E03F
:1021B000C456DE4FC881D0E0D064ABCFD065A9CF84
:1021C0008D2F0E941712182FCE0199270E9475118A
:1021D000C12FD0E0DC2FCC27CC27DF71C82BD92B27
:1021E00098CFCE0199270E947511CC27DF70C82B9C
:1021F000D92BD06A8ECFCF71D0E0DC2FCC27C16F26
:10220000D06A87CF2C2F26952695277080E2289FAD
:10221000900111248C2F8370C1E0D0E002C0CC0F5C
:10222000DD1F8A95E2F7C22BD32BDC6872CF2C2FEF
:1022300026952695277080E2289F900111248C2FE7
:102240008370C1E0D0E002C0CC0FDD1F8A95E2F7B9
:10225000C22BD32BDA685DCF8C2F8F710E9417129F
:10226000C82FD0E0DC2FCC27CC27DF71D06251CF34
:102270008C2F8F710E94171255E0D695C7955A95ED
:10228000E1F7CF70D0E0DC2FCC27282F30E084FF9F
:1022900005C044E0220F331F4A95E1F7C22BD32B30
:1022A000D06937CF8D2F8F710E941712182FCE0152
:1022B00099270E947511C12FD0E0DC2FCC27CC27A5
:1022C000DF71C82BD92BD2CF462F753030F4613156
:1022D00020F4672F0E943B23089590E080E008954A
:1022E0000E9464110E944610089582389105B9F148
:1022F000B0F48133910509F47DC048F48932910529
:1023000009F46DC08A32910509F47BC008958533C4
:10231000910509F45FC08933910509F10895833E61
:102320009105D9F138F4803E910529F1823E91055D
:1023300079F10895863E9105D9F1873E910509F41A
:102340003EC0843E910541F52091330321FF24C016
:102350008091320384FD19C087EE90E008952091AA
:102360003203237009F05AC02091330323FF14C0B5
:1023700089E290E008952091320320FD38C0309129
:10238000330330FF09C024FF43C090E080E008958C
:102390002091320322FDF7CF08952091320322FDD0
:1023A0003AC03091330330FD39C024FFF5CFEDCF73
:1023B0002091320323FFF0CF24FDE7CFCDCF209132
:1023C000320323FD2EC03091330331FFEECF84EE74
:1023D00090E008952091320325FFDECFC9CF2091F0
:1023E000320325FD21C02091330323FFD5CF89E39C
:1023F00090E0D2CF2091320326FFCECF8AE290E048
:1024000008952091320326FFC7CF81E390E008951D
:1024100083EE90E0089582EE90E0089580EE90E0E3
:10242000089586EE90E0089585E390E008959091F8
:10243000320392FF06C0282F28712830F9F4877FD5
:10244000846093FF06C0282F28712831F1F4877E1D
:1024500084612091330320FF06C0382F3871383053
:10246000D9F4877F816021FF06C0282F2871283189
:10247000D1F4877E816194FD877E0895282F247191
:102480002430F9F68B7F8860DCCF282F247124312B
:1024900001F78B7E8861DDCF382F3171313019F72C
:1024A0008E7F8860E0CF282F2171213121F78E7E29
:1024B0008861E1CF80E008950E94910E08950E9406
:1024C00086132FEF86E791E0215080409040E1F79E
:1024D00000C000000E94861380E00E949C1260FFF2
:1024E00004C00E945C120E94862708950E945F1219
:1024F00008950E94980E811102C00E943A0F0E9416
:10250000A40E8093BF020E94AE0E9093330380937B
:1025100032030E9476120E94A90E0E9454098091F3
:1025200019020E946C09089508950E94941208955A
:1025300008950E949812089594E0899FF001112453
:10254000E85BFC4F608171818281938108950895D9
:1025500080EA8A95F1F7089500C008950E94A812B4
:102560000895F894E82FE295EF70F0E031A1282F5C
:102570002F7081E090E001C0880F2A95EAF7982F2C
:102580009095932391A392A1892B82A37894089587
:10259000CF93DF93CFE9D1E089918F3F11F00E9473
:1025A000B11281E0C03BD807B9F7C0EBD1E0899107
:1025B0008F3F11F00E94B11281E0C53BD807B9F7F7
:1025C000DF91CF9108954F925F927F928F929F9269
:1025D000AF92BF92CF92DF92EF92FF920F931F9331
:1025E000CF93DF93B82E092F162F69017A01C62FDA
:1025F000D0E0CE0181569E4F2C01DC012C912F3F63
:1026000009F455C0F894E22FE295EF70F0E031A1A3
:102610002F7081E090E001C0880F2A95EAF7932F90
:10262000982B91A392A18095892382A378940E94EC
:10263000AC1240EB51E0EB2DF02F65EB71E000E0C8
:102640004601570180949094A094B094EA01799047
:10265000AE0180819181A281B381DFEF7D16B9F156
:10266000272D22952F7030E0E90128A130E0D72DE9
:10267000DF7002C035952795DA95E2F720FD27C077
:102680008C299D29AE29BF2980839183A283B3839E
:1026900001E0349664177507C9F6F20180818F3F17
:1026A00011F00E94B112602F812F0E94AE12DF91B3
:1026B000CF911F910F91FF90EF90DF90CF90BF903F
:1026C000AF909F908F907F905F904F90089588215A
:1026D0009921AA21BB2180839183A283B383D9CF7F
:1026E0000E94C81284E1E8E4F3E0DF01982F1D9214
:1026F0009A95E9F7E4E3F3E0DF011D928A95E9F7A3
:1027000085E00E94E2130E94951208958F929F9295
:10271000AF92BF92FF920F931F93CF93DF93CDB7EA
:10272000DEB764970FB6F894DEBF0FBECDBF8E0143
:102730000F5F1F4F84E1F80111928A95E9F7F12CA0
:10274000812C912C54018394A50194016F2DC80113
:102750000E94E312F394880C991CAA1CBB1CF1E1A3
:10276000FF12F2CF44E150E0B80184E393E00E940D
:10277000443021E0009709F420E0892B41F084E106
:10278000F801A4E3B3E001900D928A95E1F745E0EA
:1027900068E473E084E393E00E94E313182F0E943F
:1027A0009912812F64960FB6F894DEBF0FBECDBF8D
:1027B000DF91CF911F910F91FF90BF90AF909F90AD
:1027C0008F9008950895CF92DF92EF92FF920F932A
:1027D0001F93CF936C017B01042F222349F081E0EA
:1027E0008093C2020E943B279093C1028093C00253
:1027F000C091C202C1110AC0C0E08C2FCF911F91BD
:102800000F91FF90EF90DF90CF9008958091C002DC
:102810009091C1020E945327059770F384E0089FAE
:1028200080011124A801B601C7010E944430892B00
:1028300041F0A801B601C7010E9451301092C202B6
:10284000DCCFC0E0FBCF0E9434290E94A00F0E9481
:10285000412908950E9446290E94AD0F0E946029D7
:1028600008950E94D4260E941A290E94850F0E9472
:1028700023140E942A140E94960FFBCF8091C90254
:1028800080FF0DC060910B0170E0660F771F60380C
:10289000710570F56115710569F1862F089581FF45
:1028A00007C060910B0184E0689FB0011124EFCF55
:1028B00060910B0182FD0AC08091C8028823A9F0B3
:1028C00020910A0160910B01821710F088E0ECCF93
:1028D000869FC001112433E0880F991F3A95E1F7D4
:1028E000622F70E00E94FA2ED2CF68E070E0D5CF60
:1028F0008FE7089581E008958091C90280FF0CC0A0
:102900006091070170E075956795759567956115FC
:10291000710549F1862F089581FF06C06091070176
:1029200070E075956795F3CF6091070182FD0BC04C
:102930009091C7029923A1F060910601809107014F
:10294000961738F0682F70E06038710500F38FE754
:102950000895899FC001112470E00E94FA2EF4CFDF
:1029600061E070E0D7CF81E008958D3C31F40E94A2
:102970003E1481958093CD0208958E3C19F40E94F7
:102980003E14F8CF8F3C31F40E943E148195809321
:10299000CC020895803D19F40E943E14F8CF893D81
:1029A00029F40E947C148093CE0208958A3D21F47C
:1029B0000E947C148195F7CF8B3D31F40E947C14EA
:1029C00081958093CF0208958C3D19F40E947C1468
:1029D000F8CF9FE2980F983070F4815D990B21E059
:1029E00030E001C0220F8A95EAF78091CB02822B5A
:1029F0008093CB0208958D3D31F48091C9028160AE
:102A00008093C90208958E3D21F48091C9028260AD
:102A1000F7CF8F3DB9F78091C9028460F1CF409123
:102A2000CC028D3C59F48091CD0287FF0DC01092ED
:102A3000CD0241110BC01092C80208C08E3C81F437
:102A40008091CD0218169CF3442381F08091CE0230
:102A50009091CF02892B09F05AC01092C7020895B5
:102A60008F3C49F447FFF0CF1092CC028091CD0209
:102A70008111ECCFE0CF803D19F41416ACF3E4CF14
:102A80009091CE02893D29F41916F4F61092CE02E7
:102A9000DBCF8A3D19F497FFD7CFF8CF9091CF02C3
:102AA0008B3D29F497FFD0CF1092CF02CDCF8C3D34
:102AB00019F41916CCF3C8CF9FE2980F983090F410
:102AC000815D990B21E030E0B90102C0660F771FEC
:102AD0008A95E2F7CB0180959091CB028923809370
:102AE000CB02B2CF8D3D31F48091C9028E7F8093AD
:102AF000C902AACF8E3D21F48091C9028D7FF7CF04
:102B00008F3D09F0A1CF8091C9028B7FF0CF08954E
:102B10000E943B279C019091CC028091CD02982B82
:102B200021F03093C6022093C5029091CE0280918D
:102B3000CF02982B21F03093C4022093C3028AEC79
:102B400092E00E946F25089586E0EAECF2E0DF0152
:102B50001D928A95E9F71092C8021092C70210924E
:102B6000C9020895FC01828181110EC08381811107
:102B70000BC08481811108C091E08581811101C061
:102B800090E0892F8170089581E0FCCFA6E0B0E04D
:102B9000ECECF5E10C947D2F86E0EAECF2E0DE014E
:102BA000119601900D928A95E1F71092CC02109245
:102BB000CD021092CE021092CF028B819C81892B84
:102BC00089F08091C5029091C6020E945327AC0102
:102BD0009091C8029923C9F180910C0184171506C0
:102BE00008F440C08D819E81892B91F08091C302B1
:102BF0009091C4020E945327AC019091C70299237F
:102C000009F471C0809108018417150608F479C091
:102C1000BE016F5F7F4F8AEC92E00E94892681118E
:102C200005C08AEC92E00E94B21581110E948815BD
:102C300086E0FE013196AAECB2E001900D928A95F1
:102C4000E1F72696E3E00C94992F20910D018AE09C
:102C5000289F900111242417350720F69F5F909339
:102C6000C80202C09F3FD1F71B81112359F00E9477
:102C70003E149FEF11160CF491E0899F802D1124D2
:102C80008093CC021C81112359F00E943E149FEFC7
:102C900011160CF491E0899F802D11248093CD02B0
:102CA0003091CC02332309F49DCF2091CD02222311
:102CB00009F498CF45EB3403C0011124992359F04E
:102CC0009093CC0245EB240390011124332339F077
:102CD0003093CD0287CF81E08093CC02F3CF81E0A7
:102CE0008093CD027FCF209109018AE0289F900137
:102CF00011242417350708F08BCF9F5F9093C702EC
:102D000002C09F3FD1F71D81112359F00E947C140E
:102D10009FEF11160CF491E0899F802D1124809370
:102D2000CE021E81112359F00E947C149FEF1116D0
:102D30000CF491E0899F802D11248093CF02309173
:102D4000CE02332309F464CF2091CF02222309F469
:102D50005FCF45EB3403C0011124992359F09093C0
:102D6000CE0245EB240390011124332339F0309334
:102D7000CF024ECF81E08093CE02F3CF81E08093EB
:102D8000CF0246CFEF92FF920F931F93CF93DF9323
:102D9000EB01E82FD1110EC0442321F0F0E0E259FD
:102DA000FB4FE4916E2F7E2F8E2FCDB7DEB7E6E07E
:102DB0000C94962F0D2F10E0282F30E0442329F09B
:102DC00022593B4FF901249130E0F6E0CF9FC0013A
:102DD0001124EFEFF0E0BF010E94E62EAB018C2F33
:102DE00090E0880F991FA5E5A49FB001A59F700DE5
:102DF0001124861B970B982F990F980FBF01601B0A
:102E0000710B629FD001639FB00D729FB00D1124B2
:102E10008B2F9D9FB0011124672F7727EF01C61BD1
:102E2000D70BBE01629FE001639FD00D729FD00D52
:102E300011247F01E91AF108E09EB001E19E700DB6
:102E4000F09E700D1124672F7727E61BF70BE29F8A
:102E50008001E39F100DF29F100D1124E12F722FBE
:102E60004230510599F048F44115510569F041305F
:102E7000510581F0EB2F8D2F07C04430510569F0CB
:102E800080F046305105B1F76E2F8FCFE22F7B2FA8
:102E9000812FFACFE22F7D2FF7CFEB2F822F712FCB
:102EA000F3CF7B2F822FED2FEFCF41E00E94C21690
:102EB000089508950E9455170895CF93DF93762FB4
:102EC000E901682F842F0E945A17798368838A83C7
:102ED000DF91CF91089580915C03982F9E7F29F414
:102EE0008170826080935C0308958635E8F3817079
:102EF0008465F8CFB0E0A0E0E0E8F7E10C94782F2B
:102F000088E090E00E9462306B017C0184E290E0F6
:102F10000E945A30282F30E040E050E060E070E03E
:102F200080E090E000E20E94A52FB22FA32FF42FA3
:102F3000E52FD62FC72F97018601BC29A12BFE298B
:102F40005E2F532B2B2F3A2F4F2F6D2F7C2FCDB76A
:102F5000DEB7E8E00C94942FB0E0A0E0E2EBF7E1FC
:102F60000C94742F49015A016B017C010E946B176C
:102F70008401A4016A2D7B2D88E090E00E949030AE
:102F800094014A2D5B2DB601C70100E20E94C02FBB
:102F9000622F84E290E00E947E30CDB7DEB7ECE095
:102FA0000C94902FECE5F3E0208131814281538134
:102FB00064817581868197810E94AC170895ECE544
:102FC000F3E083E0808311828FEF82838383148216
:102FD000758123E030E04FEF5FEF60E086819781FD
:102FE0000E94AC17089580915C0380FF02C0869513
:102FF000089580E0089580915C0381700895909118
:103000006003933018F49F5F90936003882391F0DE
:1030100020915C0330915D0340915E0350915F030A
:1030200060916003709161038091620390916303EA
:103030000E94AC17089581E00E94FF1708959091B7
:103040006003992319F0915090936003882391F0C5
:1030500020915C0330915D0340915E0350915F03CA
:1030600060916003709161038091620390916303AA
:103070000E94AC17089581E00E941F180895809166
:103080006003089580936003662389F020915C03B8
:1030900030915D0340915E0350915F037091610335
:1030A000682F80916203909163030E94AC1708958A
:1030B00060E00E944218089580915D030895809118
:1030C0005E03089580915F03089570E00E94D21E10
:1030D00008956091120180915C0380FF0BC0809184
:1030E000110123E0829FC00111248C599C4F0E9442
:1030F00065180895809113019091140123E0829F37
:10310000F0011124EC59FC4F891748F71182108205
:1031100012828F5F3396F8CF90915C0390FF0EC0C0
:10312000909113012091140133E0939FF001112439
:10313000EC59FC4F921718F00E946918089581838A
:10314000608342839F5F3396F5CFA3E0B0E0EBEA64
:10315000F8E10C947E2F90915C0390FF0AC09E01D1
:103160002F5F3F4F0E945D174B8169818A810E94CA
:103170008C182396E2E00C949A2FCF93DF93EC0106
:10318000EC81F0E0E759FC4F4491ECE5F3E062811B
:1031900081810E94A5188C818F5F8C83DF91CF91F4
:1031A0000895CF93DF93EC01ECE5F3E04381628176
:1031B0008C810E94A5188C818F5F8C83DF91CF91C9
:1031C0000895A3E0B0E0E7EEF8E10C947C2F8C01C9
:1031D0008091D00281110AC09E012F5F3F4F4FEFB7
:1031E0006FEF0E945D178A818093D002F80164819D
:1031F000613069F08091D00240E0662361F040E0E8
:10320000623011F44091D00280E060E004C060912F
:10321000D00240E080E00E948C18F801848190E0A8
:10322000019663E070E00E94FA2E84832396E4E026
:103230000C94982FA3E0B0E0E0E2F9E10C94772F32
:10324000082FD62EF42EC22E90915C0390FF2EC034
:10325000E92FE695AE2FB0E0AB54BE4F8C91809332
:1032600002039E7F923031F59E012F5F3F4F802FEA
:103270000E945D174B8169818A810E948C1800939E
:103280005D03D0925E03F0925F03CC2079F0209131
:103290005C036091600370916103302F4D2D5F2DB1
:1032A00080916203909163030E94AC172396E9E03A
:1032B0000C94932F823019F4F0905F03E0CF8630A6
:1032C00019F400915D03DBCF8930D9F38931B9F668
:1032D000E9516E2F6170B62EE695F0E0E759FB4F8D
:1032E0001491E12C60911501E61618F00E946918FE
:1032F000C6CFE19EC001112470E00E94E62E802F0F
:10330000B11014C0860F20911301622F6E0D772724
:10331000771F9B01220F331F260F371F2C593C4F5D
:103320004F2D6D2D0E945D17E394DCCF861BEBCFF4
:10333000ECE5F3E09181282F4381628188E0890FD9
:103340000E941A19089581E00E9498190895ECE5E9
:10335000F3E09181282F4381628188EF890F0E94D9
:103360001A19089581E00E94A7190895ECE5F3E089
:10337000628121E1620F08F46FEF282F4381818180
:103380000E941A19089581E00E94B6190895ECE58B
:10339000F3E0628121E1621B08F460E0282F4381A1
:1033A00081810E941A19089581E00E94C719089529
:1033B000ECE5F3E0438121E1420F08F44FEF282FC1
:1033C000628181810E941A19089581E00E94D819B2
:1033D0000895ECE5F3E0438121E1421B08F440E06D
:1033E000282F628181810E941A19089581E00E942C
:1033F000E919089520E00E941A190895EF92FF92AA
:103400001F93CF93DF93EC0110E0EE24EA94F12CAC
:1034100060911501161770F00E9469189A818C81CD
:1034200090FF27C08F5F8C83DF91CF911F91FF901A
:10343000EF90089520911301422F410F5527551FFA
:10344000CA019A01220F331F280F391F2C593C4FF4
:1034500070E0C7010E94FA2E962F8C8140915F0385
:1034600060915E03199F800D11240E945D171F5FFC
:10347000CFCF8150D8CFB0E0A0E0E1E4FAE10C94E6
:10348000772FFC0182810FEF80FF01E010E0809137
:103490001501181798F00E9469188091D202013026
:1034A00009F04CC0811102C08091150181508093B8
:1034B000D202CDB7DEB7E9E00C94932FC09113018F
:1034C000C12ED12CCC0DDD2DD11DCE01880F991F21
:1034D000C80FD91FCC59DC4F198218821A8234E0E8
:1034E000E32EF12CB12C8091D2028B0D893004F1A6
:1034F0008770082E000C990BC816D90691F480919C
:103500005F038E9DA0018F9D500D11245595479509
:10351000559547959E0160915E0380915D030E94E1
:103520005D17B00EF1E0EF1AF108E9F61F5FAFCFBB
:1035300087FFDFCF90911501890FDBCF90E00196D7
:103540006091150170E00E94FA2EB1CF0F931F9386
:10355000CF93DF93809113019091140123E0829F18
:10356000F0011124EC59FC4F891740F1C0E0D3E081
:1035700060911501C61740F10E94691820910F0152
:103580008091D102820F8093D10290911001920F0D
:1035900090931001191654F4082E000C990B4091C9
:1035A00015014150550B841795071CF02195209368
:1035B0000F01DF91CF911F910F9108951182108219
:1035C00012828F5F3396D0CF0C2F10E070E0C801CD
:1035D0000E94FA2E20911301820F482F50E0209173
:1035E000D102022E000C330B02171307BCF02091FE
:1035F0001001022E000C330B201731077CF08D9F39
:10360000900111242C593C4F40915F0360915E035F
:1036100080915D030E945D17CF5FAACFFA01EE0F84
:10362000FF1FE40FF51FEC59FC4F1182108212822C
:10363000F3CFB0E0A0E0EFE1FBE10C94742FEC01DC
:103640004C81042F10E09801D8010E94452F9B0166
:10365000AC010E945B2F4B015C01E0E2F0E0E01B5B
:10366000F10BA5E5B0E0AC019B010E945B2F6B0163
:103670007C019F01DF010E943D2F9B01AC010E9454
:10368000662F9B01AC01280D391D4A1D5B1DC7012A
:10369000B6010E940E2FF22E822F90E039E23F15E4
:1036A00020F143E0249F9001112435952795122F96
:1036B000109500E085E5E82EEF18809115010817B8
:1036C00018F10E9469189C8181E0992319F09032C9
:1036D00019F48FEF80930E0180910E01890F8C8376
:1036E000CDB7DEB7ECE00C94902F25E530E0B901C2
:1036F000681B790B9B01220F331F260F371F37FFE3
:10370000D4CF2F5F3F4FD1CF8E2D01FD8F2D209134
:103710001301622F600F7727771F9B01220F331F42
:10372000260F371F2C593C4F412F60915E030E949A
:103730005D170F5FC2CF0F931F93CF93DF93EC0101
:1037400010E000E0909115019017110609F06CF45B
:103750000E9469188C8190E00196817099278C8372
:10376000DF91CF911F910F91089520911301A8012E
:10377000420F511D9A01220F331F240F351F2C5960
:103780003C4F4C8160915E0380915D03969590174C
:10379000110651F04CF0442349F040915F030E9420
:1037A0005D170F5F1F4FCECF4423B9F340E0F7CF33
:1037B000B0E0A0E0EEEDFBE10C94702FFC01628024
:1037C000448081E08483E9E6F3E07490E8EEF3E07E
:1037D000E491C0915F03C695C158D0E0CC0FDD1FC6
:1037E000CD2FDD27812C75E0972EAA24AA94B12C29
:1037F00055245A94E719EE2EF12C80911501881664
:1038000038F00E946918CDB7DEB7E0E10C948C2F38
:10381000C82CD12C82E0861568F09C9CF0019D9C00
:10382000F00D1124ED52FD4F80915D038083809156
:103830005E038183411023C09C9CF0019D9CF00D90
:103840001124ED52FD4F1382128220911301C60103
:10385000820F911D9C01220F331F280F391F2C59F5
:103860003C4F9C9CF0019D9CF00D1124ED52FD4FAE
:103870004281618180810E945D178394BECF9C9CB0
:1038800080019D9C100D11240D521D4FF801838164
:103890008823F1F081508383859DC00111246481C8
:1038A00070E00E94E62EFB01FF27E759FC4F849150
:1038B000E82FE719E59DC0011124B7010E94E62E0B
:1038C00080915F03689FB0011124F8017283BDCF1E
:1038D0000E942730B5010E94FA2E8C179D070CF02C
:1038E000B4CFF2E0F61598F40E942730B5010E949B
:1038F000FA2EF80180830E94273020915E032695DE
:10390000622F70E00E94FA2E280FF80121839C9C00
:10391000F0019D9CF00D1124ED52FD4F128280911B
:103920005F03893C58F088EC9C9CF0019D9CF00D55
:103930001124ED52FD4F8483838387CF8431A0F718
:1039400084E1F2CFECE5F3E020812E7F208331810A
:103950004281538164817581868197810E94AC1771
:10396000109203030E9469180895ECE5F3E080814A
:103970008E7F8083109203030E94691808956091DE
:103980005C03669570E04BE050E086E191E00E94B8
:103990003730892B19F481E0809303030E943B2781
:1039A0009093FC028093FB02089590915C0390FF3A
:1039B00033C09170811131C0926090935C03662393
:1039C00091F020915C0330915D0340915E03509132
:1039D0005F03609160037091610380916203909135
:1039E00063030E94AC1760915C03669570E04BE046
:1039F00050E086E191E00E943730892BA9F01092C7
:103A0000030381E08093FE0240915F0360915E03B7
:103A100080915D030E94FA1908958B3210F094652D
:103A2000CCCF880F982BC9CF0E94BF1CEACF682F3C
:103A300090915C03969581E0890F8B3208F081E0CC
:103A40000E94D51C089581E00E94171D0895682FDB
:103A500090915C0396958FEF890F09F48AE20E949A
:103A6000D51C089581E00E94271D089561E00E9401
:103A7000D51C0895ECE5F3E0808181608083869514
:103A80000E94361D089580915C0380FF03C00E9450
:103A9000A21C08950E943A1D089560E00E94D51C62
:103AA00008958091010381113EC00E94980E8111FA
:103AB00004C00E943A0F0E94DF170E947A172093D9
:103AC0005C0330935D0340935E0350935F03609308
:103AD00060037093610380936203909363032E7F6E
:103AE000A1F40E94DF170E947A1720935C033093A1
:103AF0005D0340935E0350935F0360936003709394
:103B0000610380936203909363030E946B1710928A
:103B1000030380915C0380FF03C086950E944D1DC6
:103B200081E0809301030895ECE5F3E080818160FA
:103B3000808386950E944D1D089580915C0380FFCF
:103B400003C00E94B51C08950E94941D08950F9310
:103B50001F93CF93DF93809103038823B9F1809162
:103B60000203E0915C03E695E81BE093FD028230DE
:103B700091F5F0E0EB59FC4FE491CE2FD0E00DEB46
:103B800018E18091FE02882361F01092FE020E94EB
:103B90003B279093FC028093FB021092000310924B
:103BA000FF020E943B27E091FB02F091FC028E1B7A
:103BB0009F0B8F3F9F4750F4EC0FFD1FF093FC02CB
:103BC000E093FB028BEF92E0F8010995DF91CF9132
:103BD0001F910F910895863049F4F0E0EE59FC4FA3
:103BE000E491CE2FD0E001ED18E1CBCF893051F434
:103BF000E695F0E0E15AFC4FE491CE2FD0E00EEFD5
:103C000019E1BFCF8F3051F4E695F0E0E45AFC4F54
:103C1000E491CE2FD0E00BE31AE1B3CF853149F424
:103C2000F0E0E75AFC4FE491CE2FD0E006EA1AE12B
:103C3000A8CFC8E2D0E009E11BE1883109F4A1CFA7
:103C4000833239F4E7E5F3E0C591D49101EE18E150
:103C500098CFC4EFD1E00BE91BE1843209F491CF96
:103C6000C0EDD7E009E517E1853209F08ACF8E2F44
:103C700063E00E94DA2EE92FF0E0EC5AFC4FE49169
:103C8000CE2FD0E008ED1BE17CCFFA01811101C0FD
:103C9000FB0109950895CF93DF93C82FD62F0E947B
:103CA000F3178C1748F00E94F3178D1728F40E9421
:103CB000231DDF91CF9108958C2F0E94361DF9CFDF
:103CC0001F93CF93DF93EC01FB011581111110C0FD
:103CD0000E94970D8272FE01E052F847E531F1052E
:103CE00008F05EC0E152FF4C0C94302F0E94431D3F
:103CF000812FDF91CF911F91089542E35DE163E24F
:103D00007DE10E94451EF4CF43E25DE162E37DE187
:103D1000F8CF42EB59E163EA79E1F3CF43EA59E1A5
:103D200062EB79E1EECF44ED59E163EC79E1E9CF63
:103D300043EC59E164ED79E1E4CF46EF59E165EEFA
:103D400079E1DFCF45EE59E166EF79E1DACF4BE378
:103D500058E16BE178E1D5CF4BE158E16BE378E1D5
:103D6000D0CF81E00E94361DC3CF65E082E00E9483
:103D70004B1EBECF68E086E0FACF6EE089E0F7CF59
:103D800064E18FE0F4CF67E185E1F1CF88E1EACF2C
:103D900062E289E1ECCF83E2E5CF6AE285E2E7CF38
:103DA00011E0A6CF209A45B14E7F55B15160EFB7D3
:103DB000F8949B01220F331F260F371F280F391F3E
:103DC0002817390741F4EFBF8FE594E00197F1F729
:103DD00000C000000895DC016D91CD0178E055B977
:103DE000000000C067FF45B9660F000000C000C0BA
:103DF00000C045B900C07A9591F7E2CF85E290E026
:103E00000E945A30833289F486E290E00E945A3050
:103E1000883059F487E290E00E945A3091E0803176
:103E200009F090E0892F8170089580E0FCCFCF9356
:103E3000C82F6FEF811163E285E290E00E947E302F
:103E40006FEFC11168E086E290E00E947E306FEF74
:103E5000C11160E187E290E00E947E30CF91089529
:103E6000089588E290E00E945A30682F70E090E058
:103E700080E008950895CF93C62F0E943A1F6C2FBB
:103E800088E290E00E947E30CF91089580E00E9409
:103E9000171F60E070E0CB010E943B1F0E94C72209
:103EA0000E94962381E00E94171F08950E94301FF0
:103EB0000E94311F0E943A1F0E94FE1E811102C003
:103EC0000E94461F08950E949D1D08959C01FB01BC
:103ED0008581882351F0A90157574038510530F4A6
:103EE000822F0E94A62380E0089581E008952FEF9D
:103EF000FC012083089580E00895CF93DF93EC01C7
:103F000088818230E9F028F4813071F0DF91CF911F
:103F100008958330F9F08430C9F70E945C188983D2
:103F20000E945F188A83F2CF0E9462182FEF829F4F
:103F3000C00111246FEF70E00E94E62E6983E6CF86
:103F40000E94FB17882321F00E94F3178983DECF9C
:103F500080E0FCCF0E943F18F9CFCF93DF93EC01B4
:103F60008881823021F128F4813069F0DF91CF918E
:103F70000895833041F18430C9F70E946218482FB8
:103F80006A81898111C089812FEF829FC00111242C
:103F90006FEF70E00E94E62ED62F0E945F18C82FA8
:103FA0000E945C184D2F6C2F0E94FA19DFCF898177
:103FB000811103C00E94B51CD9CF0E94941D898134
:103FC0000E944D1DD3CF89810E945818CFCFFC018C
:103FD0009C012E5F3F4F9081983041F0993051F015
:103FE000973059F4C9010E94AD1F0895C9010E947C
:103FF0007D1F08950E94D21708958FEF8083089542
:10400000FC012181223019F40E94E71F08950E94CB
:10401000771F0895B0E0A0E0E0E1F0E20C94782F83
:10402000EC01C62E0E947B1F811110C0E881E15077
:10403000E331B8F4F0E0EC50FF4C0C94302F1982CF
:104040008CE08A836C2DCE010E940E28CDB7DEB79E
:10405000E8E00C94942F89818230C1F028F48130FB
:1040600061F08FEF8883EECF833099F08430C9F709
:104070001A821B821C821D82E5CF0E9447270E9464
:10408000362F6A837B838C839D83DCCF0E94311F14
:10409000F6CF8A81082F10E07E0199E0D92ED80E44
:1040A0000530110578F6802F0E949C12F70183835A
:1040B000748365830F5F1F4FF3E0EF0EF11CD01286
:1040C000EFCFC0CF8981823031F0853051F68A81BF
:1040D0000E94631FB7CF6A817B818C819D810E9482
:1040E000362F0E943B1FAECF4B816A8189810E948F
:1040F00089229827892798279D838C83A3CF2C8199
:104100003D813227232732274B816A8189810E9492
:10411000AB2298CF0E94C72295CF6C2DCE010E9472
:10412000002090CF0E94472389838CCF0E9449238F
:104130009827892798279A83898384CF6B8170E099
:1041400089819A81AE014C5F5F4F98278927982714
:104150000E944C2377CF6B8170E089819A81AE01F8
:104160004C5F5F4F9827892798270E9471236ACF59
:104170000E94962367CF0E947722D6CF6B8170E092
:1041800089819A81AE014C5F5F4F982789279827D4
:104190000E94F32257CF6B8170E089819A81AE0132
:1041A0004C5F5F4F9827892798270E9417234ACF93
:1041B000CF93DF93EC01FB018581882309F4D2C002
:1041C0009E0130572332310508F0B2C00E94AE0E76
:1041D0009093330380933203FE01E150F047E232C3
:1041E000F10520F4E95FFE4C0C94302F80913203EE
:1041F00081608093320393C0809133038860809301
:1042000033038DC0809132038260F3CF80913203FB
:104210008460EFCF809132038860EBCF80913303CD
:104220008160EDCF809133038260E9CF80913203CA
:104230008061DFCF809132038062DBCF80913203D7
:104240008064D7CF0E940909809132038068D1CF62
:10425000809132038C60CDCF809133038360CFCFC8
:10426000809132038E7FC5CF80913303877FC7CF84
:10427000809132038D7FBDCF809132038B7FB9CF88
:1042800080913203877FB5CF809133038E7FB7CF84
:10429000809133038D7FB3CF809132038F7EA9CF7E
:1042A000809132038F7DA5CF809132038F7BA1CF88
:1042B0000E940909809132038F779BCF809132034E
:1042C000837F97CF809133038C7F99CF8091320386
:1042D00082FB992790F921E0922790FB82F990FBCD
:1042E00083F987CF80913303982F909591708E7FBB
:1042F000892B90FB81F983CF90913203892F8F7B9B
:1043000096FF806476CF0E94090990913203892F2D
:1043100097FB87F980586DCF81E00E943D0F809117
:104320003203909133030E94B30E0E94090980E08A
:10433000DF91CF91089580E0F0CF90913203892FE3
:104340008F7E94FF806155CF90913203892F8E7FAD
:1043500090FF81604ECF90913303892F877F93FF29
:1043600088604DCF81E0E4CFB0E0A0E0EAEBF1E27D
:104370000C94792FE82FF0E0E259FA4FD490282FCF
:1043800026952695269530E0F901E25FF94F0491D4
:10439000877010E0082E02C0159507950A94E2F781
:1043A00001701127F901E250FA4FE490F12C082E28
:1043B00002C0F594E7940A94E2F791E0E922FF2421
:1043C000F901E251FA4FC491D0E002C0D595C795EA
:1043D0008A95E2F7C170DD270115110519F081EE0C
:1043E0000E94B205E114F10419F086EE0E94B205B4
:1043F0008D2D0E94B606E114F10419F086EE0E949C
:1044000044060115110519F081EE0E944406CD2BDA
:1044100019F08CE20E94B606CDB7DEB7E7E00C9447
:10442000952FEF92FF920F931F93CF93DF93EC01A1
:10443000162F0AE08881882309F454C0813009F0DE
:104440004EC08981813099F47E0122E0E20EF11C98
:104450008A810E94B606E7012196812F815050F390
:10446000EFE9FFE03197F1F700C00000F7CF8230AD
:1044700041F47E0182E0E80EF11C8A810E94B205BF
:10448000EACF833041F47E01E2E0EE0EF11C8A8136
:104490000E944406E0CF843011F02196DDCF2A81BE
:1044A000229690E080E0AE014F5F5F4F2053330BC8
:1044B0002A30310548F0019778F2EFE9FFE03197B3
:1044C000F1F700C00000F7CF089FB001099F700D01
:1044D0001124C901860F971F2981EA01E4CF0E94A8
:1044E000B421BACFCDB7DEB7E6E00C94962F84E0C6
:1044F000089550E0440F551F92E2699F400D511DF1
:1045000011249AEA899F400D511D1124CA018996F0
:1045100008950F931F93CF93DF938430C8F46530D1
:10452000B8F44131A8F40E9479228C010E945A30DB
:10453000C82FD0E0DC2FCC27C80101960E945A304A
:104540009E01282BC901DF91CF911F910F910895F2
:1045500090E080E0F8CF0F931F93CF93DF93122F5B
:10456000032F843078F4653068F4413158F40E94A8
:104570007922EC01602F0E947E30612FCE010196DE
:104580000E947E30DF91CF911F910F9108950F937C
:104590001F93CF93DF93D0E0C0E010E019C00E94DA
:1045A0001E0421E030E08C171D0639F034F0402F56
:1045B000612F8C2F0E9420049C01402F612F8C2F93
:1045C0000E94AB220F5F013151F71F5F153011F0D0
:1045D00000E0E5CF2196C430D105F9F6DF91CF9107
:1045E0001F910F910895EF92FF920F931F93CF9316
:1045F000DF93EC018A017C01E60EF71ECE0189965D
:10460000CE15DF0529F4CDB7DEB7E6E00C94962F82
:10461000C83A22E0D20740F40E945A30F801808361
:104620000F5F1F4F2196EACFF8011082F9CFB0E05B
:10463000A0E0EDE1F3E20C94782F7C016A018C019B
:10464000060F171FEC01CE018996C017D10729F478
:10465000CDB7DEB7E8E00C94942FC83A22E0D20739
:1046600040F4FE01EE19FF09EC0DFD1D60810E9472
:104670007E302196E8CF843038F4653028F441311B
:1046800018F40E948922089590E080E0089580E166
:1046900008958FE291E00895EF92FF920F931F9398
:1046A000CF93DF93EC018A017C01E60EF71ECE0169
:1046B0008F529D4FCE15DF0529F4CDB7DEB7E6E06A
:1046C0000C94962FCF3221E0D20740F40E945A304A
:1046D000F80180830F5F1F4F2196E9CFF801108208
:1046E000F9CFB0E0A0E0E7E7F3E20C94782F7C018B
:1046F0006A018C01060F171FEC01CE018F529D4FEE
:10470000C017D10729F4CDB7DEB7E8E00C94942F99
:10471000CF3221E0D20740F4FE01EE19FF09EC0D83
:10472000FD1D60810E947E302196E7CFCF93DF93FD
:10473000C1EDD2E060E0CE010E947E302196C1152D
:1047400084E0D807B9F7DF91CF910895A8E0B0E0F1
:10475000ECEAF3E20C94762FF82E8FE08F1508F434
:104760006EC08FEF93E00E945A30811168C001ED56
:1047700012E0F11035C0FE0131966F0188E0119210
:104780008A95E9F77801FFEFEF1AFF0AC8010E9446
:104790005A3089831A82882309F451C08130D1F4B8
:1047A000580182E0A80EB11CC7010E945A308A83CA
:1047B000882309F444C09FEF980F9330F0F47801F8
:1047C00093E0E90EF11CC5010E945A308B838823C7
:1047D000B1F11C8260E0C6010E9411228701D2CF94
:1047E000011594E0190759F1C8010E945A3081114E
:1047F00001C0FA940F5F1F4FBCCF7501843051F791
:1048000002E010E07501EFEFEE1AFE0AC5010E940A
:104810005A30F601E00FF11F8083882381F08C3736
:1048200041F4E2E0F0E0EC0FFD1FE00FF11F108219
:10483000D1CF0F5F1F4F57010730110519F7289689
:10484000EAE00C94922FCF93DF93EB0186319C47E3
:1048500011F50E94970D9D81992399F08A7A91E034
:1048600009F490E090930403811109C089E20E9449
:104870006F0D0E94F00D80E0DF91CF91089585E3E8
:10488000F6CF80910403811104C089E20E94770D64
:10489000F0CF85E3FBCF81E0EFCF0F931F93CF9352
:1048A000DF93C42FD22FFC0185818823C9F0409368
:1048B00007030E943B27909306038093050380E241
:1048C0008C0F883040F4C77081E001C0880FCA9512
:1048D000EAF70E94BF06DF91CF911F910F910895D3
:1048E00010910703141332C08091050390910603C1
:1048F0000E945327883C910548F5C0E2CD0F1D1753
:10490000B9F080E2810F883040F4177081E001C077
:10491000880F1A95EAF70E94C606C83048F481E06D
:104920009D2F977001C0880F9A95EAF70E94BF06E5
:10493000802F0E94B606C83070F6D77081E001C0A3
:10494000880FDA95EAF70E94C606C5CF80E28C0F81
:10495000883008F6C77081E001C0880FCA95EAF771
:10496000F2CF0F93DB0188519C4787309105A0F56A
:10497000FC01E75DFE4C0C94302F06E221EE41EE87
:104980006AE17CE7CD010E944D2480E00F910895FB
:1049900007E225EE45EE6BE17CE7F4CF06E221EE7F
:1049A00040EE68E17CE7EECF07E225EE44EE69E1F8
:1049B0007CE7E8CF06E221EE42EE6CE17CE7E2CF55
:1049C00007E225EE46EE6DE17CE7DCCF08E221E070
:1049D00045EE6EE17CE7D6CF15968C91882319F0D1
:1049E00010920703D3CF81E0D1CF1F93CF93DF93F2
:1049F00087372CE7920759F0C1E088379C47E1F4EC
:104A0000FB01C581CC2371F10E94382506C0FB0152
:104A1000C581CC23B1F00E9435250E9481090E94F6
:104A20003B25D82F0E943825C82F0E9435254D2FB1
:104A30006C2F0E94A90AC0E08C2FDF91CF911F91AB
:104A400008950E9435250E948D090E943B25182F4C
:104A50000E943825D82F0E943525412F6D2F0E94A6
:104A6000A90AEACF0E943825EECF8091230108954C
:104A70008091220108958091210108959093F10180
:104A80008093F001089590930D0380930C03089593
:104A9000E0910C03F0910D03309729F00190F08123
:104AA000E02D0995089580E00895E0910C03F091C0
:104AB0000D03309799F020912C01222359F0209179
:104AC000320327FF07C0DC012C9111962C9311971C
:104AD00026E02C930280F381E02D09950895E09162
:104AE0000C03F0910D03309739F022E0DC012C9398
:104AF0000480F581E02D09950895A3E0B0E0E3E896
:104B0000F5E20C947E2F20910A0330910B032817B5
:104B10003907A1F090930B0380930A03E0910C03F3
:104B2000F0910D03309751F023E029839B838A8312
:104B30000680F781E02DCE01019609952396E2E0EB
:104B40000C949A2FA3E0B0E0E8EAF5E20C947E2FF3
:104B5000209108033091090328173907A1F0909399
:104B6000090380930803E0910C03F0910D03309743
:104B700051F024E029839B838A830680F781E02D0E
:104B8000CE01019609952396E2E00C949A2FFC0140
:104B9000329680912C01882321F0809132039EE18E
:104BA00087FF96E080E0915008F408952191222338
:104BB000D1F38F5FF8CF662301F120912C012223DE
:104BC000F1F02091320327FF1AC0462F46954695F3
:104BD00046954E3190F4677021E030E002C0220F1C
:104BE000331F6A95E2F7840F911DFC01828190E0EA
:104BF0002823392381E0232B69F480E00895FC0108
:104C0000329608962191261721F0E817F907D1F777
:104C1000F4CF81E008959C01FC0132969FEF80E083
:104C20004191461751F09F3F19F4411101C0982F4F
:104C30008F5F8630A9F79F3F09F40895290F311D32
:104C400097FD3A95F90162830895FC013296089622
:104C50002191261303C0DF0111971C92E817F90771
:104C6000B9F70895E62FE695E695E695EE3168F4F6
:104C7000E80FF92FF11D677021E030E001C0220F2D
:104C80006A95EAF78281822B82830895E62FE69562
:104C9000E695E695EE3170F4E80FF92FF11D677097
:104CA00021E030E001C0220F6A95EAF72095828169
:104CB00028232283089520912C01222339F020916A
:104CC000320327FF03C00E94322608950E940B265C
:104CD000089520912C01222339F02091320327FFDF
:104CE00003C00E94462608950E9425260895FC01CF
:104CF000329680912C01882351F08091320387FFF6
:104D000006C08EE1DF011D928A95E9F7089586E0DD
:104D1000F9CF46E050E00E94443021E0892B09F4AD
:104D200020E0822F089508950E949326089581110E
:104D300006C081E080930E030E949426089582E0CD
:104D4000F9CF83E080930E030E94942608950E9479
:104D50009726089581E080930E030E94942608957B
:104D60000E94AA260895089508950E94B4260895E1
:104D7000089508950E94B3260895CF930E94B826FF
:104D80000E9486130E94B926C0E08C2F0E949C12BC
:104D9000672B682B692B31F4CF5FC530B1F780E00A
:104DA000CF91089581E0FCCF85B7806885BF85B736
:104DB000806885BF08951F921FB61F9211248F939C
:104DC0009F93AF93BF9380910F03811113C0809184
:104DD0007C0390917D03A0917E03B0917F03419667
:104DE000A11DB11D80937C0390937D03A0937E034E
:104DF000B0937F03BF91AF919F918F911F901FBE82
:104E00001F90189580918403843031F10E941F0512
:104E100010920F0388E190E020E40FB6F894A89573
:104E2000809360000FBE2093600083B7817F846011
:104E300083BF83B7816083BF7894889583B78E7F63
:104E400083BF0FB6F894A895809160008861809325
:104E50006000109260000FBE08950E9409090E9430
:104E60002405089582E084BD93E095BD9AEF97BD37
:104E700080936E0008952FB7F89480917C039091F1
:104E80007D03A0917E03B0917F032FBF08952FB7BC
:104E9000F89460917C0370917D0380917E039091E2
:104EA0007F032FBF08959C014FB7F89480917C0336
:104EB00090917D03A0917E03B0917F034FBF821B31
:104EC000930B089578941F921FB61F9211248F930D
:104ED0009F93AF93BF9380917C0390917D03A091AA
:104EE0007E03B0917F030196A11DB11D80937C03C9
:104EF00090937D03A0937E03B0937F03BF91AF9106
:104F00009F918F911F901FBE1F90189581E08093F5
:104F1000E00080E28093D8001092C9008FE19EE407
:104F20000197F1F700C0000087E090EBDC0180936F
:104F30008D0390938E03A0938F03B093900388E129
:104F40009CE00FB6F894A895809360000FBE9093F4
:104F50006000FFCF88E19CE00FB6F894A89580939D
:104F600060000FBE90936000FFCF809130030895E2
:104F70009B01BA01909184039430E9F48F7080937F
:104F8000E9009FEF8091E800915085FD06C085ED16
:104F90008A95F1F700009111F5CF8091E80085FF27
:104FA0000AC050E040E0C9010E94042A8091E80054
:104FB0008E778093E800089543E050E0BC0184E0E0
:104FC0000E94B827089546E050E0BC0184E00E94AA
:104FD000B8270895CF93DF93EC0180912C018111C4
:104FE00011C048E050E0BE0181E00E94B82780E295
:104FF000FE01A0E1B3E001900D928A95E1F7DF9107
:10500000CF9108958091320387FF05C040E284E08C
:1050100050E0BE01EACF48E081E0FACF603231F4DF
:1050200040E250E0BC0182E00E94B82708958091E0
:105030008303811109C00E94E32B0E94402C8091C0
:10504000E20084608093E200089510928303089543
:105050000E94AA2608956091800381E0611101C039
:1050600080E00E94A12608959091840381E094300D
:1050700009F080E0609180030E94A726089542E035
:1050800061EC81E00E945F2B42E261EC84E00E94CF
:105090005F2B42E261EC82E00E945F2B42E260EC17
:1050A00083E00E945F2B9091840381E0943009F0AB
:1050B00080E0609180030E94972608958091860386
:1050C000833009F463C030F48130E1F1823009F4B7
:1050D000A0C008958A3009F48CC08B3009F471C0E7
:1050E000893009F052C080918503813209F04DC0AA
:1050F0008091890390918A03009719F0029709F033
:1051000044C08091E800877F8093E8008091E800A8
:1051100082FF37C09091F3008091F200029731F442
:105120008091F100813011F0863021F48091F100FE
:10513000809330038091E8008B778093E8000E9491
:10514000932B23C080918503813AF9F48091E80084
:10515000877F8093E8008091890390918A03892B4F
:1051600061F460E280E193E070E00E94A22A809105
:10517000E8008B778093E800089560E090E080E09D
:10518000F3CF809184038111C1CF0895809185036D
:10519000813AD9F78091890390918A03892BA9F7E5
:1051A0008091E800877F8093E8008091E80080FF8D
:1051B000FCCF80912C018093F1008091E8008E77E4
:1051C000BCCF80918503813201F780918903909152
:1051D0008A03892BD1F68091E800877F8093E800CD
:1051E0000E94932B8091870380932C010E940909D0
:1051F000089580918503813241F68091E800877F90
:105200008093E8000E94932B809188038093310360
:10521000089580918503813A09F0B7CF8091E80025
:10522000877F8093E8008091E80080FFFCCF809129
:105230003103C1CF84B7877F84BF0FB6F894A89598
:1052400080916000886180936000109260000FBEC2
:1052500080E890E00FB6F89480936100909361002D
:105260000FBE0E94B02608950E94E32B0E94402C9E
:10527000E2EEF0E080818460808378940E94BF2E0B
:10528000089584E291E00E9443250895809184036B
:10529000853031F480918403853019F00E942D27E8
:1052A00008950E94022780918203882399F30E9427
:1052B000BD26882379F30E94EE290E940909EACFCE
:1052C000A0E2B0E0E6E6F9E20C947E2F8091840340
:1052D000843009F583E08093E9008091E80082FF43
:1052E0001AC08091E80090E085FF09C050E040E0DE
:1052F00060E270E0CE0101960E94532A91E0809115
:10530000E8008B778093E800992329F060E2CE01D2
:1053100001960E940A20A096E2E00C949A2F9A012E
:1053200040918B0350918C030E9497290895492F37
:1053300055274330510521F168F44130510509F4F6
:1053400043C04230510509F444C090E080E050E091
:1053500040E026C04132510551F142325105A9F7D2
:105360006330710590F7FB01EE0FFF1FED51FE4F0B
:105370004081518160527E4FFB01808190E010C0DE
:1053800099278130910581F0009729F00297E9F67D
:10539000EEE1F6E002C0EEE3F6E0849190E0AF01CA
:1053A000F901518340830895E0E3F6E0F6CF6330DE
:1053B000710558F6660F771FFB01E751FE4F4081DC
:1053C000518189E090E0ECCF82E190E04DE956E038
:1053D000E7CF8BE590E042E456E0E2CF80E189BD83
:1053E00082E189BD09B400FEFDCF8091D8008F7D98
:1053F0008093D8008091E00082608093E0008091EB
:10540000E00081FDFCCF0895AF92BF92CF92DF9272
:10541000FF920F931F93CF93DF936C01EB018A01EF
:105420000E94B22BF82E811123C00115110539F00D
:10543000F80180819181C81BD90BC80ED91EB12CEF
:10544000A12C2097A9F08091E80085FD22C08091D1
:10545000E8008E778093E80001151105A1F0F801AE
:1054600080819181A80EB91EB182A08285E0F82EBC
:105470008F2DDF91CF911F910F91FF90DF90CF90F3
:10548000BF90AF9008950E94B22B8823D1F2F82EDE
:10549000EFCFF60181916F018093F1002197FFEF2B
:1054A000AF1ABF0ACECFAF92BF92CF92DF92FF92D8
:1054B0000F931F93CF93DF936C01EB018A010E943E
:1054C000B22BF82E811123C00115110539F0F80116
:1054D00080819181C81BD90BC80ED91EB12CA12C7B
:1054E0002097A9F08091E80085FD22C08091E80016
:1054F0008B778093E80001151105A1F0F8018081F8
:105500009181A80EB91EB182A08285E0F82E8F2D60
:10551000DF91CF911F910F91FF90DF90CF90BF90BF
:10552000AF9008950E94B22B8823D1F2F82EEFCFCE
:105530008091F100F60181936F012197FFEFAF1A7F
:10554000BF0ACECFFC0180918B0390918C0386170C
:105550009707A0F06115710529F49091E8009E77F6
:105560009093E80090E06115710551F4911108C025
:105570008091E80082FF34C080E00895BC01F2CF42
:10558000809184038823C1F18530C1F18091E800C6
:1055900083FD30C08091E80082FDEACF8091E80071
:1055A00080FFE1CF8091F3002091F200382F611548
:1055B000710519F02830310558F091E02830310597
:1055C00009F090E02091E8002E772093E800CBCFFF
:1055D00081918093F100615071092F5F3F4FE7CFB8
:1055E00080918403882341F0853041F08091E80068
:1055F00083FFBECF81E0089582E0089583E008959F
:10560000FC0180918B0390918C0386179707A0F083
:105610006115710529F48091E8008E778093E80088
:1056200090E06115710551F4911108C08091E80076
:1056300082FF35C080E00895BC01F2CF80918403E1
:105640008823C9F18530C9F18091E80083FD31C01C
:105650008091E80082FDEACF8091E80080FFE1CFF1
:105660008091F3002091F200382F6115710519F037
:105670002830310558F091E02830310509F090E0EC
:105680008091E8008E778093E800CBCF849180935F
:10569000F1003196615071092F5F3F4FE6CF809145
:1056A0008403882341F0853041F08091E80083FF36
:1056B000BDCF81E0089582E0089583E00895982F9A
:1056C000973028F08F708093E90081E008959093DF
:1056D000E900242F762F50E0981731F07091EC00FC
:1056E0002091ED005091F00021FD02C09F5FE8CFB6
:1056F0003091EB003E7F3093EB003091ED003D7F29
:105700003093ED003091EB0031603093EB007093FB
:10571000EC002093ED005093F0002091EE0027FD67
:10572000E5CF80E008958091850387FF13C08091C5
:10573000E80082FF06C08091E8008B778093E80044
:1057400004C0809184038111F2CF08958091840375
:105750008823D9F38091E80080FFF8CF8091E8009A
:105760008E77ECCF2091E4003091E50095E6A90119
:105770002091EC00822F817020FF06C08091E8000C
:1057800080FF06C080E008952091E80022FD1AC045
:1057900080918403882389F0853089F08091EB0023
:1057A00085FD0FC02091E4003091E50042175307BA
:1057B000F9F29150E1F684E0089582E0089583E0E3
:1057C000089581E008950E94522C0E945A2CE0EE28
:1057D000F0E0808181608083E8EDF0E080818F7768
:1057E000808319BCA7EDB0E08C918E7F8C93808173
:1057F0008F7E80831092830308950F931F93CF931E
:10580000DF930E94522C0E945A2CC8EDD0E0888170
:105810008F77888388818068888388818F7D88835B
:1058200019BC10928403109280031092820310928C
:10583000810300EE10E0F80180818B7F80838881F6
:105840008160888342E060E080E00E945F2BE1EEAF
:10585000F0E080818E7F8083E2EEF0E080818160E5
:105860008083808188608083F80180818E7F80833F
:10587000888180618883DF91CF911F910F91089576
:10588000E8EDF0E080818F7E8083E7EDF0E08081BD
:105890008160808384E082BF81E0809383030E94E3
:1058A000FD2B0895E8EDF0E080818E7F80831092DB
:1058B000E20008951092DA001092E10008951F921C
:1058C0000F920FB60F9211242F933F934F935F9334
:1058D0006F937F938F939F93AF93BF93EF93FF93B8
:1058E0008091E10082FF0BC08091E20082FF07C03F
:1058F0008091E1008B7F8093E1000E94BE2E809119
:10590000DA0080FF19C08091D80080FF15C0809117
:10591000DA008E7F8093DA008091D90080FF96C0F4
:1059200080E189BD82E189BD09B400FEFDCF81E03F
:10593000809384030E9417288091E10080FF19C0A2
:105940008091E20080FF15C08091E2008E7F8093FD
:10595000E2008091E20080618093E2008091D800B3
:1059600080628093D80019BC85E0809384030E94F4
:105970002B288091E10084FF2BC08091E20084FFFE
:1059800027C080E189BD82E189BD89B5982F9170DA
:1059900080FFFBCF8091D8008F7D8093D8008091CD
:1059A000E1008F7E8093E1008091E2008F7E809302
:1059B000E2008091E20081608093E20080918003A8
:1059C000882309F449C084E0809384030E9434282A
:1059D0008091E10083FF29C08091E20083FF25C010
:1059E0008091E100877F8093E10082E080938403CF
:1059F000109280038091E1008E7F8093E10080917E
:105A0000E2008E7F8093E2008091E20080618093CB
:105A1000E20042E060E080E00E945F2B8091F000B5
:105A200088608093F0000E942828FF91EF91BF9139
:105A3000AF919F918F917F916F915F914F913F9126
:105A40002F910F900FBE0F901F90189519BC1092B8
:105A500084030E94252870CF8091E30087FD93E0A6
:105A600090938403B3CF1F920F920FB60F9211241D
:105A70002F933F934F935F936F937F938F939F9356
:105A8000AF93BF93CF93DF93EF93FF93D091E90050
:105A9000DF708091EC00C82FC17080FDC0E81092CB
:105AA000E9008091F000877F8093F00078940E9455
:105AB000772D1092E9008091F00088608093F000CB
:105AC000CD2BCF70C093E900FF91EF91DF91CF9183
:105AD000BF91AF919F918F917F916F915F914F9106
