:100000000C94E1030C9419040C9419040C94190435
:100010000C9419040C9419040C9419040C941904EC
:100020000C9419040C9419040C94B4290C94882A87
:100030000C94D4230C9419040C9419040C941904F2
:100040000C9419040C9419040C9419040C941904BC
:100050000C9419040C945B240C9419040C9419044A
:100060000C9419040C9419040C9419040C9419049C
:100070000C9419040C9419040C9419040C9419048C
:100080000C9419040C9419040C9419040C9419047C
:100090000C9419040C9419040C9419040C9419046C
:1000A0000C9419040C9419040C94190435001E00C6
:1000B0001F0020002100220023002400250026002C
:1000C00027002D002E002A0049004A004B002B007B
:1000D00014001A000800150017001C0018000C007E
:1000E000120013002F00300031004C004D004E0074
:1000F000E00004001600070009000A000B000D00D4
:100100000E000F0033003400280000000000000043
:100110000000E1001D001B00060019000500110091
:100120001000360037003800E100004100000000F8
:1001300052000000E000E300E200000000002C009C
:100140000000000000000000E200E700E000000006
:10015000500051004F0035003A003B003C003D008C
:100160003E003F0040004100420043004400450083
:100170000100C25CC55CC95C010001000100010016
:100180000100010001000100490047004800520041
:1001900001000100C35CC65CCA5C3900AA00A9006A
:1001A000A800010001000100010001000100500051
:1001B0004F000100000000000000000001006A0084
:1001C000AC00AB00010001000100010001000100D2
:1001D00051000100010000000000010000000100CA
:1001E000010001000000000001000000000000000C
:1001F00000000100005C010000000100010001009E
:1002000001000100010001000100010001000100E6
:1002100001000100010001000100010001000100D6
:1002200001000100010001000100010001000100C6
:1002300001000100010001000100010001000100B6
:1002400001000100010001000100010001000100A6
:100250000100010001000100010001000100000097
:100260000000000000000100010001000100010089
:100270000100010001000100010001000100010076
:10028000000000000100000001000100010000006A
:10029000000001000000000000000000010001005B
:1002A0000100000001000100010001000100010047
:1002B0000100010001000100010001000100010036
:1002C0000100010001000100010001000100010026
:1002D0000100010001000100010001000100010016
:1002E0000100010001000100010001000100010006
:1002F00001000100010001000100010001000100F6
:1003000001000100010001000000000000000000E9
:1003100001000100010001000100010001000100D5
:1003200001000100010001000100000000000100C7
:1003300000000100010001000000000001000000B9
:1003400000000000000001000100010000000100A9
:10035000010001000004643214643214783C1E1E53
:10036000140A052223252628292A2C2D2F30323342
:100370003536383A3B3D3E4042434547494A4C4E6C
:100380005051535557595A5C5E6062646668696B98
:100390006D6F71737577797B7D7F81838587898A9E
:1003A0008C8E90929496989A9C9E9FA1A3A5A7A8A4
:1003B000AAACAEAFB1B3B4B6B8B9BBBCBEBFC1C2D4
:1003C000C3C5C6C7C9CACBCCCDCED0D1D2D2D3D467
:1003D000D5D6D7D7D8D9D9DADADBDBDBDCDCDCDC85
:1003E000DCDDDDDDDDDCDCDCDCDCDBDBDBDADAD953
:1003F000D9D8D7D7D6D5D4D3D2D2D1D0CECDCCCBD5
:10040000CAC9C7C6C5C3C2C1BFBEBCBBB9B8B6B4F2
:10041000B3B1AFAEACAAA8A7A5A3A19F9E9C9A9882
:10042000969492908E8C8A89878583817F7D7B7953
:10043000777573716F6D6B6968666462605E5C5A34
:100440005957555351504E4C4A4947454342403EF7
:100450003D3B3A3836353332302F2D2C2A29282689
:10046000252322FFAA7F554000010101010101015E
:100470000101020202020202020202030303030359
:100480000303030404040404040405050505050628
:1004900006060606070707070708080808090909E6
:1004A000090A0A0A0B0B0B0C0C0C0D0D0D0E0E0E8F
:1004B0000F0F0F1010111111121213131414151520
:1004C00016161717181819191A1A1B1B1C1D1D1E92
:1004D0001E1F2020212222232424252626272829E6
:1004E000292A2B2C2D2D2E2F303132323334353614
:1004F0003738393A3B3C3D3E3F4041424344454614
:100500004748494A4C4D4E4F5051535455565859EF
:100510005A5B5D5E5F616264656668696B6C6D6F96
:100520007072737577787A7B7D7E80828385878809
:100530008A8C8E8F91939596989A9C9EA0A2A3A543
:10054000A7A9ABADAFB1B3B5B7BABCBEC0C2C4C644
:10055000C9CBCDCFD1D4D6D8DBDDDFE2E4E7E9EB00
:10056000EEF0F3F5F8FAFDFF0000000000000000D7
:100570002A2B2800000000000000000000000000FE
:1005800000000029000000002C1E34202122243409
:100590002627252E362D3738271E1F2021222324DB
:1005A00025263333362E37381F0405060708090A77
:1005B0000B0C0D0E0F101112131415161718191A13
:1005C0001B1C1D2F3130232D350405060708090A91
:1005D0000B0C0D0E0F101112131415161718191AF3
:1005E0001B1C1D2F3130354C0000000000000000A6
:1005F00000000000000000000000000000000000FB
:100600000000000000000000000000007E0F00D489
:10061000FFFFFFC70000007810036E00690067004D
:10062000680074003700300000000C03740069009B
:100630006D0061006C0000000403090409025B0006
:10064000030100A0FA0904000001030101000921CF
:10065000110100012240000705810308000109047F
:100660000100020300000009211101000122220003
:100670000705820320000107050303200001090488
:100680000200010300000009211101000122B6004F
:100690000705840320000112010002000000082762
:1006A0001163600100010200010660FF0961A10100
:1006B0000962150026FF009520750881020963155F
:1006C0000026FF00952075089102C005010902A1CE
:1006D0000185020901A10005091901290815002554
:1006E000019508750181020501093009311581253F
:1006F0007F95027508810609381581257F9501755A
:10070000088106050C0A38021581257F95017508B8
:100710008106C0C005010980A101850319012AB71E
:1007200000150126B700950175108100C0050C0960
:1007300001A101850419012AA002150126A0029534
:100740000175108100C005010906A1018506050794
:1007500019E029E7150025019508750181020507B3
:10076000190029EF1500250195F075018102050892
:1007700019012905950575019102950175039101EE
:10078000C005010906A101050719E029E7150025A3
:100790000195087501810295017508810105071908
:1007A0000029FF150026FF00950675088100050841
:1007B00019012905950575019102950175039101AE
:1007C000C00011241FBECFEFDAE0DEBFCDBF04B6FC
:1007D00003FE18C08091380390913903A0913A0329
:1007E000B0913B038730904BA740B04B59F4109227
:1007F00038031092390310923A0310923B03E0E061
:10080000F8E3099511E0A0E0B1E0E2E6FAE502C004
:1008100005900D92AE3CB107D9F723E0AEECB1E004
:1008200001C01D92A833B207E1F70E947F130C9418
:10083000062D0C94000084E0089581E0089581E085
:1008400008950E941F04089508950E9424040895A5
:10085000A5E0B0E0EEE2F4E00C94732C49835A83F7
:100860003091D50189819A81311119C0662399F09F
:10087000222389F00E941D0A182F682F89819A81EE
:100880000E94F90969817A81812F0E94BD202596F5
:10089000E3E00C948F2C0E940B0A182FF3CF0E94D8
:1008A0001D0A69817A81F1CFFC01262F4081518197
:1008B0006281738184810E942804089581E00895F3
:1008C000CF93DF93EC0160E00E945404BE010E94CC
:1008D0002504DF91CF910895E1E0F0E0DF0102C04F
:1008E000AA0FBB1F6A95E2F7BD01DF0102C0AA0F84
:1008F000BB1F4A95E2F76A2B01C0EE0F2A95EAF773
:10090000962F9823961302C08E2B0895E0958E2380
:100910000895242F462F682F8091F7010E946C04C0
:100920000E94590908950E94E31108950E94E71159
:10093000089508950E94EB080E9499042FEF84E324
:100940009CE0215080409040E1F700C000000895F5
:100950000E949A040E947F2408950E949A040E9493
:10096000A32408950F931F93CF93DF938C0161E02D
:100970000E945404EC01B8010E945B1C811106C066
:1009800080E0DF91CF911F910F910895B801CE01C2
:100990000E9421048823A1F3B801CE010E94032202
:1009A000882371F3B801CE010E94BA1D882341F358
:1009B000B801CE010E947521882311F3B801CE0140
:1009C0000E94101B8823E1F2F8018281882361F0E4
:1009D000CA35FDE5DF0701F158F4C115ECE5DE0786
:1009E00091F0CE3DDC4591F0C8010E941D04C9CFB5
:1009F000CC358DE5D80769F090F0C73ADD45A1F711
:100A00000E94AD04BDCF0E94A804BACF0E94D60EAA
:100A1000F7CF0E94100EE8CF0E941A0EE5CF0E9479
:100A20001E0EE2CF0E94AE230E942F0508950E9461
:100A300033050E94B323089508950E941C0508956C
:100A400081E008950E94200508950895CF93C82F4E
:100A50000E941D058C2F0E942205CF91089580E0F1
:100A60000E94260508950E945F220E94260508958F
:100A7000CF930E945F22C82F8091D0018C1779F00C
:100A8000C093D0010E9440246093D1017093D201A1
:100A90008093D3019093D4018C2F0E942605CF918F
:100AA0000895ABE0B0E0E7E5F5E00C94742C4F83DB
:100AB000588769877A878B8761110E945B0D1E8238
:100AC0001D8285E0FE013796DE01119601900D92A0
:100AD0008A95E1F78C819D81892B61F449815A8146
:100AE0006B817C818D819E810E94840C2B96E2E03B
:100AF0000C94902C89819A8189238F3F79F3CE01C0
:100B000001960E945E048111E9CFF0CFFC01808143
:100B100091810E944A0A0895CF93C82F8823C9F073
:100B20008238C9F40E945F2281FD13C089E30E94CC
:100B3000130D0E947C0D2FEF87EE93E02150804033
:100B40009040E1F700C0000089E30E941B0D0E9465
:100B50007C0DCF9108958338A1F40E945F2280FD1F
:100B6000F8CF83E50E94130D0E947C0D2FEF81EEDC
:100B700094E0215080409040E1F700C0000083E500
:100B8000E4CF8438A1F40E945F2282FDE2CF87E4A3
:100B90000E94130D0E947C0D2FEF81EE94E02150F6
:100BA00080409040E1F700C0000087E4CECF8CEF9A
:100BB0008C0F813A90F46C2F80910001909101018B
:100BC0000E94D422882329F08C2F0E941B0D0E94A2
:100BD0007C0D8C2F0E94130DBACF80E28C0F8830D1
:100BE00048F4C77081E001C0880FCA95EAF70E94F7
:100BF0003E0DADCFEBE5EC0FE33040F4F0E0EB5A07
:100C0000FE4F808190E00E949422A3CFE8E5EC0F94
:100C1000E73150F4F0E0EE0FFF1FE95DFE4F8081F9
:100C200091810E94AA2295CFC03F08F492CF8C2FC9
:100C30000E9403140E94D6148CCF882309F455C057
:100C4000823879F40E945F2281FF4FC089E30E94BD
:100C5000130D0E947C0D89E30E941B0D0E947C0DE8
:100C60000895833859F40E945F2280FF3EC083E5D7
:100C70000E94130D0E947C0D83E5EECF843859F459
:100C80000E945F2282FF31C087E40E94130D0E9400
:100C90007C0D87E4E1CF9CEF980F913AE8F290E267
:100CA000980F983050F4877091E001C0990F8A95A1
:100CB000EAF7892F0E94440DD1CF9BE5980F93301E
:100CC00028F490E080E00E949422089598E5980F1F
:100CD000973128F490E080E00E94AA220895803F96
:100CE00020F00E945D140E94D61408951F93CF93A4
:100CF000DF93182FEB010E948C05209739F4812F88
:100D00000E941D06DF91CF911F9108958FE99FE00A
:100D10000197F1F700C000002197EFCF70E060E08D
:100D2000893311F460E570E00E9476060895882307
:100D300021F00E943E0D0E947C0D0895882321F031
:100D40000E94440D0E947C0D0895B0E0A0E0EBEA03
:100D5000F6E00C946D2C6C01D62FC72FFC0112818C
:100D6000F580F2949FE0F9220E94340DE82E88234A
:100D7000B9F0E12E1123A1F08C2F807F803421F077
:100D800080E28D0F8830D0F08091E10282FF16C0A2
:100D900082E00E94DF0D0E94340D91E0E82EE926EA
:100DA000BC2EB2948FE0B822FBE0FB1508F468C0BB
:100DB000EB2DF0E0E85FF24D0C94572CE12CF0CFD6
:100DC0000C2F0F70C07F11F00295007F112399F056
:100DD000002359F080E28D0F883010F0D11107C048
:100DE000802F0E943E0D0E947C0D8D2F41C0802FD0
:100DF0000E944E0DF8CF8D2F0E941D06002309F48E
:100E00003FC080E28D0F883010F0D11104C0802FD8
:100E10000E94440D03C0802F0E94540D0E947C0D3F
:100E20002FC00C2F0F70C07FC03211F00295007FD1
:100E3000DD2381F0D13009F463C0112309F46DC0C2
:100E4000FF2009F463C0F601858180FFCECF8F704B
:100E500085835CC08091E10282FD33C0112359F08B
:100E6000002329F0802F0E943E0D0E947C0D80E01F
:100E70000E948C0505C080E00E941D060111C7CFAD
:100E8000EB2DE850FF0B349720F40E945F220E9464
:100E90002605EE2089F00E94300D80FD0DC0F60180
:100EA00012820E942A0D0E946D09C6010E94AB08A1
:100EB0000E942A0D0E947909CDB7DEB7E9E00C94B3
:100EC000892C112389F0F11006C00E945E0D802B41
:100ED0000E949706D5CF21E0F212F7CF0E945E0D57
:100EE000802B0E94650DCCCFF11006C00E94720DC0
:100EF000802F0E949E06C4CF31E0F31609F2F6CF90
:100F0000112331F085E08F1508F4BACF802FE0CFA0
:100F100094E09F1508F4B4CFEBCFFF2049F3D93309
:100F200049F4FFEF27EE33E0F15020403040E1F785
:100F300000C000008D2F0E941D06A2CF8C2F869529
:100F40008695837069F0813009F09ACF8D2F9C2FA0
:100F50009370111102C090E080E00E94AA2290CF0D
:100F60008D2F9C2F9370111102C090E080E00E94A1
:100F7000942286CF8D2F112329F00E9403140E9402
:100F8000D6147ECF0E945D14FACF8C2F837079F532
:100F9000111176CF4D2F429546954770440F440F5F
:100FA0008D2F8F70042E01C0880F0A94EAF72D2F21
:100FB0002071D4FF07C02FE030E001C0220F4A9516
:100FC000EAF72095C695C695C370822BC23049F0CA
:100FD00058F4C13019F00E94470952CF0E944109CC
:100FE0004FCF0E944D094CCF0E943E0949CF8695B4
:100FF000112311F08C2F8170882309F441CF4D2FDC
:10100000429546954770440F440F8D2F8F70042EE4
:1010100001C0880F0A94EAF72D2F2071D4FF07C072
:101020002FE030E001C0220F4A95EAF72095C695DF
:10103000C695C370822BC23049F058F4C13019F004
:101040000E9498091DCF0E9492091ACF0E949E0902
:1010500017CF0E94590914CFCF70112329F08C2F7C
:101060000E946D098D2F34CF8D2F0E949E068C2FEC
:101070000E94790905CFD23F51F160F4D03FB9F019
:10108000D13F81F0112309F449C0F110AECE8C2F6D
:101090008F7121C0D33F11F1D43FA1F78091E102BC
:1010A00082FD26C08C2F8F71112311F314C01123E0
:1010B00049F084E08F1508F4E3CE8C2F8F710E94E5
:1010C0008609DECE95E09F1508F4DACEF6CF8C2F98
:1010D0008F711111CDCF0E946D09D2CE112329F04D
:1010E0008C2F8F710E946409CBCE0E946009C8CEFC
:1010F000112349F0CF718C2F0E946D0963E08C2F72
:101100000E94C10DBDCE81E00E94DF0DE1E0EF1530
:1011100008F0B6CE82E00E94DF0DB2CEF110FFCE15
:101120008C2F8F71A5CF0F931F93CF93DF93EC017B
:10113000688179818A810E94550A8C010E94A409E4
:101140000E943D09B801CE010E94A506DF91CF9112
:101150001F910F910895CF93DF93EC018B819C81B8
:10116000892B29F08881998189238F3F51F4DF9160
:10117000CF910895CE010E949308CE010E94600491
:10118000F6CFCE010E94B2048111F4CF0E94340D3B
:10119000882369F38A81882351F38091E10282FFD9
:1011A000E6CF82E00E94DF0DE2CF90E080E00E9477
:1011B000942290E080E00E94AA220E945B0D0E948F
:1011C0007C0D0E94F2140E94D61408950E94230DF3
:1011D0000E94D50808950E944B0D0E94E6080895CC
:1011E00092959F70963091F058F4925F9F70923074
:1011F00058F4803F19F030F4883E30F481E00895CF
:101200009A5FF4CF843FD1F380E00895883EB0F335
:10121000813FD1F7F3CFFC0183819481892B29F0A1
:101220008081918189238F3F11F480E0089580812E
:1012300091810E944A0A0E94F0080895A5E0B0E05A
:10124000E4E2F9E00C94742C2596E2E00C94902CE6
:10125000A6E0B0E0EEE2F9E00C94742C2696E2E011
:101260000C94902C08950E94320908950E9433092D
:101270008093F8010E94D508089508950E943609C8
:1012800008959091F801892B0E9436090895909154
:10129000F80189230E94360908959091F801892761
:1012A0000E94360908950E94320908950E94530948
:1012B00008950E9456098093F7010E94D508089569
:1012C00080E00E945909089591E001C0990F8A9524
:1012D000EAF7892F0E945909089521E030E001C002
:1012E000220F8A95EAF78091F701822B0E94590913
:1012F000089521E030E001C0220F8A95EAF7209599
:101300008091F70182230E945909089521E030E07D
:1013100001C0220F8A95EAF78091F70182270E9487
:10132000590908959091F701892B0E945909089550
:101330009091F70189230E94590908959091F7012E
:1013400089270E94590908950895262F277091E052
:1013500001C0990F2A95EAF723E0769567952A95BB
:10136000E1F7FB01EE0FFF1FE60FF71FE40FF51F7C
:1013700050E040E0682F70E08191DF0111979B0100
:10138000042E02C0369527950A94E2F72170219524
:101390002827292328272C934F5F5F4F433051057F
:1013A00059F70895A82FA77023E0969587952A9559
:1013B000E1F7FC01EE0FFF1FE80FF91FE60FF71F23
:1013C00050E040E080E0219130E00A2E02C03695E6
:1013D00027950A94E2F721703327042E01C0220FCB
:1013E0000A94EAF7822B4F5F5F4F4330510559F75C
:1013F0000895262F953070F4813160F4682F70E0E5
:1014000081E1989F600D711D112446ED51E0822FFE
:101410000E94A5090895292F953068F4813158F468
:1014200090E066ED71E031E1239F800D911D112464
:101430000E94D209089580E00895CF92DF92FF9232
:101440000F931F93CF93DF936C010091F70180916D
:10145000F801082BC7E0D0E010E0FC2EC8010C2EEC
:1014600002C0959587950A94E2F780FD0CC02197FC
:10147000A0F7F12C8F2DDF91CF911F910F91FF904D
:10148000DF90CF900895B6018C2F0E94C110019774
:1014900071F3F0CFCF93DF93EC010E941D0ABE01E0
:1014A0000E94C110DF91CF9108951F93CF93DF93D6
:1014B000EB019091D501992339F0CB010E944A0AA2
:1014C000DF91CF911F910895882369F0CB010E948D
:1014D0001D0A182F682FCE010E94F909BE01812F25
:1014E0000E94C110EDCFCB010E940B0A182FF6CF3E
:1014F0001F93CF93DF93C091F90116E08091FA0119
:101500008C1304C0DF91CF911F910895D0E01C9FF0
:10151000F0011D9FF00D1124E550FE4F40815181D7
:1015200062817381848195810E9428092196C77008
:10153000E5CF40912B0250912C0260912D027091C9
:101540002E0280912F02909130020E942809089566
:101550001F93CF93DF9380913002807F09F049C0C1
:1015600080912D02882309F444C08091F901C09133
:10157000FA0160912B0270912C02A0912E02B09181
:101580002F02D62FD72316E0C81799F190E01097B5
:1015900011F0DF3F19F401968770F6CF189F900184
:1015A000199F300D1124F901E550FE4F4181471379
:1015B000F2CF40814613EFCF42814111ECCF4381FE
:1015C00054814A1B5B0B483C510528F7809130023F
:1015D0008F70806180933002F901E050FE4F80816E
:1015E0008F70806180838BE292E00E94AB080E9442
:1015F000780ADF91CF911F910895A1E1B0E0E3E077
:10160000FBE00C946C2C8C0185E0F801DE011D964A
:1016100001900D928A95E1F7F801E2808BE2C82EE5
:1016200082E0D82E60912E0270912F026115710513
:1016300009F44EC190912B0220912C02892F822314
:101640008F3F09F445C140815181A380B480F0905F
:101650002D02F501E61BF70BFF2009F4EAC080918B
:101660003002382F307FE83CF10508F0A3C031117B
:101670006DC0FE2C251316C0941314C0E11012C0C7
:101680008F708061809330020E94990AC6010E9487
:10169000AB0880913002F80185838F2D6196EAE0D6
:1016A0000C94882CA114B10429F0842F85238F3F3A
:1016B00009F027C180E0F82FF170DF2E80FF3CC0D9
:1016C0008091F9012091FA0136E0821315C04D870F
:1016D0005E878D859E850E944A0A292F22952F704C
:1016E0002230F0F0243018F59F70F1F0F801958168
:1016F000907FD1F4D12C1EC090E0389FF001399F2B
:10170000F00D1124E550FE4F6181651306C0608124
:10171000641303C06281E6120FC001968770D5CFB3
:101720009F7011F0882331F3805E883018F3C80170
:101730000E94AB08FD2CB1CFEE2009F4AECF809112
:101740003002816080933002F12CA7CF251306C0B0
:10175000941304C0F801EE2009F487C0C8010E9468
:101760000B09882319F1EE2009F1809130028032B3
:1017700070F020912B0230912C0238872F8319862C
:10178000BB86AA868C87CE0107960E94AB0886E0AE
:10179000F801ABE2B2E001900D928A95E1F70E9468
:1017A000A80A0E94990AFF24F39477CFC8010E94E7
:1017B000AB08F9CF311113C07A2DB98AA88A6E2DE2
:1017C00089890E941E098BE292E00E94AB0886E0A4
:1017D000F60111928A95E9F70E94990AB5CF25136F
:1017E0000FC094130DC0E1100BC0F8018583C80130
:1017F0000E94AB0886E0F60111928A95E9F74DCF79
:10180000C8010E940B09882389F2EE2079F28091A9
:101810003002803208F4BBCF20912B0230912C0291
:101820003A8329831B82BD82AC828E83CE010196CE
:10183000ACCFE83CF10508F03EC0FE2CEE2009F4E8
:10184000B5CF25132AC0941328C08091300280FDA3
:101850001BC0982F907FC1F0F8018583903F31F035
:10186000982F907F905F8F70892B8583C8010E948D
:10187000AB0886E0F801ABE2B2E001900D928A95E8
:10188000E1F70E94990A09CF86E0F801ABE2B2E0E5
:1018900001900D928A95E1F700CFC8010E940B09D3
:1018A000811175CF80913002816080933002C80130
:1018B0000E94AB08F2CE7A2DB98AA88A6E2D89894A
:1018C0000E941E0986E0F60111928A95E9F7D9CFA8
:1018D000EE2009F46BCFC8010E940B09F82E882373
:1018E00009F464CF86E0F801ABE2B2E001900D921A
:1018F0008A95E1F78BE292E00E9486050E94A80A91
:10190000C0CF81E08E25D7CEACE0B0E0EAE8FCE0C5
:101910000C94732C4F83588769877A878B879C87B1
:10192000CE0107960E94FD0A882369F08A859B856F
:10193000892B39F04F815885842F85238F3F09F0FB
:101940006BC016E05FC086E0FE013796DE0111969F
:1019500001900D928A95E1F78A859B85892B89F301
:101960008F81988589238F3F61F32091FA0130E0C0
:10197000C9010196877099274091F9014817190606
:1019800071F40E94EB081092FA011092F90186E0BE
:10199000EBE2F2E0DF011D928A95E9F7D2CF96E003
:1019A000929FD001939FB00D1124A550BE4FFE0110
:1019B000319601900D929A95E1F78093FA010E9479
:1019C000780ABFCF819FC001112485509E4F0E948D
:1019D000FD0A8823E9F0E091F9011E9FF00111242E
:1019E000E550FE4F408151816281738184819581F0
:1019F0000E9428098091F90190E00196877099274B
:101A00008093F9018091F9019091FA018913DACF5D
:101A10002C96E3E00C948F2C69857A858B859C85C8
:101A20000E9428098ECF682F8091000190910101BA
:101A30000E9454230895682F809100019091010124
:101A40000E946223089580910001909101010E94FB
:101A50007023089580915102859585958595089507
:101A6000809151028770089590915102977081E0A2
:101A700009F480E0089580917402089590917402B1
:101A8000892B809374020895809590917402982315
:101A900090937402089510927402089590917302C5
:101AA000892B8093730208958095909173029823F7
:101AB00090937302089510927302089580915202D8
:101AC000089508950E94610D08959091E10292FF9A
:101AD00008C090915202981721F0809352020E9400
:101AE000620D089580915202882329F010925202CB
:101AF00080E00E94620D0895CF93DF93E091000192
:101B0000F0910101809174028083E0910001F091D5
:101B10000101808190917302892B80839091520200
:101B2000992381F0E0910001F09101018081892BDE
:101B3000808380910001909101010E94C022811157
:101B40000E94720DC0910001D091010140E250E06D
:101B500061E372E0CE010E94A82C892B59F080E24B
:101B6000FE01A1E3B2E001900D928A95E1F7CE016A
:101B70000E946C22DF91CF91089508950E94BD0DBF
:101B800008959091E10292FF11C098E0899F900121
:101B90001124622B609351020E946D0980915102C1
:101BA0008595859585950E94BE0D08950E946D09C5
:101BB00008951092510280E00E94BE0D0895909108
:101BC00051028095892380935102282F277091F428
:101BD000282F082E000C330B9217130659F0909102
:101BE000E10292FF07C08595859585950E94790948
:101BF0000E94D90D08959091E10292FB222720F9CD
:101C0000281769F080FB92F99093E1028091E0023D
:101C10009091E1020E944D0E82E00E94DF0D089536
:101C20008091E10282FB882780F991E089270E9458
:101C3000FB0D089581E00E94FB0D089580E00E9455
:101C4000FB0D08956FEF7FEF90E080E00E94F02C95
:101C5000089590E080E00E94CC2C883E9E4F19F4BD
:101C60000E94F61B089580E0089582E090E00E94B3
:101C7000BE2C089583E090E00E94BE2C0895CF937F
:101C800084E090E00E94BE2CC82F82E290E00E9487
:101C9000BE2C982F8C2FCF910895CF93C92F682FEA
:101CA00084E090E00E94D22C6C2F82E290E00E94AF
:101CB000D22CCF910895AB01BC018FE090E00E943F
:101CC000E42C0895AB01BC0183E190E00E94E42C78
:101CD000089560E070E0CB010E94620E089560E01C
:101CE00070E0CB010E945B0E0E94690E089568EEC1
:101CF0007EEF90E080E00E94F02C60E082E090E0D7
:101D00000E94D22C60E083E090E00E94D22C1092DE
:101D1000F80160E084E090E00E94D22C64E082E26E
:101D200090E00E94D22C60E085E090E00E94D22CEE
:101D300060E086E090E00E94D22C6FEF87E090E0B8
:101D40000E94D22C40E050E0BA0188E090E00E946E
:101D5000E42C60E08DE090E00E94D22C40E050E066
:101D6000BA0188E190E00E94E42C60E087E190E015
:101D70000E94D22C40E050E0BA018CE190E00E9439
:101D8000E42C70E060E080E290E00E94F02C40E003
:101D900050E0BA0188E190E00E94E42C80E00E94CB
:101DA0000F1C0E943E1C0E946F0E08950E94770E29
:101DB0000895682F8EE090E00E94D22C08950E9432
:101DC000402460938F0270939002809391029093CD
:101DD000920260938B0270938C0280938D02909399
:101DE0008E020895089508950E94F30E08950895AF
:101DF0000E94F70E08958BEA91E10E9455220E94FD
:101E0000F20E0E94F40E089581E008950E94040FDE
:101E10000895089508950E94090F0E940A0F0895D9
:101E20000E94C7110E94250508950E942B240E943C
:101E30004E1C0E94BE120E94100F0E94441A0E9463
:101E4000F80E0895ACE0B0E0E8E2FFE00C94652CF9
:101E50000E94D41287E792E09C878B877C0110E078
:101E6000F70141905190619071907F01812F0E9404
:101E7000EA111F5F153009F465C04616570668065B
:101E8000790671F38091930281FD0E94F5110E9401
:101E9000060F382E10E0812F0E94EA116B017C01A1
:101EA000EB85FC854190519061907190FC87EB87A8
:101EB000C414D504E604F704F1F146265D2468262F
:101EC0007F2400E0812C912C54018394D301C20122
:101ED00088219921AA21BB21892B8A2B8B2BE9F000
:101EE0003320D9F00E831F8321E0D701C60188215A
:101EF0009921AA21BB21892B8A2B8B2B09F420E065
:101F000028870E9434248160782F9A8789874E81A0
:101F10005F8168858A850E9451050F5F880C991C36
:101F2000AA1CBB1C013191F6EB85FC853497C0825D
:101F3000D182E282F3821F5F153009F0ACCF0E949C
:101F4000DF0E24C0461657066806790609F09ACFB8
:101F50000E9434248C0180917502909176020817BA
:101F60001907A1F08FEF89838A831B820E94342492
:101F70008160782F9D838C8349815A816B818D810B
:101F80000E94510510937602009375020E94801AF8
:101F90000E9414150E9438052C96E1E10C94812CC6
:101FA000CF93DF930E94C610EC01811521E59207C3
:101FB00008F042C0811530E5930708F09FC0883EC5
:101FC000910530F5803E910508F094C0883A91055E
:101FD00088F4853A910508F086C08130910509F4AE
:101FE00089C0009709F486C0049708F083C0D0E048
:101FF000C0E080C08F3B9105D0F7C85AD0E0CC0F2D
:10200000DD1FC85ADE4F0990D881C02DD46472C03C
:10201000811540E2940750F4C11581E0D80708F01B
:1020200069C0C03FD10518F3D06564C081159044E4
:10203000F0F2DF70D06A5EC0811535E5930718F5C0
:10204000811544E5940708F085C0C11583E5D807DC
:1020500008F06CC0C11522E5D20708F462C0CE01B9
:102060008370992721E030E002C0220F331F8A9548
:10207000E2F7C695C69580E2C89FE0011124C22B05
:10208000D32BDC6837C0811539E59307A8F4811597
:1020900048E5940708F063C0C11586E5D80708F045
:1020A000A6CF8C2F0E946811C82FD0E0DC2FCC2740
:1020B000CC27DF71D0621EC081152AE5920708F493
:1020C00053C090568115904208F091CF8D2F8F719B
:1020D0000E94681190E0982F882788279F719C01A3
:1020E0002C2BE901E7CFC55AD0E0CA57DE4FC88193
:1020F000D0E0D064CE01DF91CF910895837099270D
:1021000021E030E002C0220F331F8A95E2F7C69526
:10211000C69540E2C49FE0011124C22BD32BDD6899
:10212000E9CFDC2FCC27C16FD06AE4CFCE0183701A
:10213000992721E030E002C0220F331F8A95E2F791
:10214000C695C69540E2C49FE0011124C22BD32B53
:10215000DA68D0CFD82FCC27C46FD06ACBCFD82F96
:10216000CC27C06FD06AC6CF8F700E94681134E050
:10217000D695C7953A95E1F7CF709C2FEC01D069C1
:10218000B9CF0E94BD200E94D00F089582389105DA
:10219000B9F1B0F48133910509F47DC048F4893276
:1021A000910509F46DC08A32910509F47BC0089548
:1021B0008533910509F45FC08933910509F10895CC
:1021C000833E9105D9F138F4803E910529F1823E94
:1021D000910579F10895863E9105D9F1873E9105E3
:1021E00009F43EC0843E910541F52091E10221FFB2
:1021F00024C08091E00284FD19C087EE90E008952C
:102200002091E002237009F05AC02091E10223FFDF
:1022100014C089E290E008952091E00220FD38C0CA
:102220003091E10230FF09C024FF43C090E080E01C
:1022300008952091E00222FDF7CF08952091E00259
:1022400022FD3AC03091E10230FD39C024FFF5CFC4
:10225000EDCF2091E00223FFF0CF24FDE7CFCDCFDB
:102260002091E00223FD2EC03091E10231FFEECF3C
:1022700084EE90E008952091E00225FFDECFC9CFE3
:102280002091E00225FD21C02091E10223FFD5CF5E
:1022900089E390E0D2CF2091E00226FFCECF8AE200
:1022A00090E008952091E00226FFC7CF81E390E0FF
:1022B000089583EE90E0089582EE90E0089580EE18
:1022C00090E0089586EE90E0089585E390E008950B
:1022D0009091E00292FF06C0282F28712830F9F46F
:1022E000877F846093FF06C0282F28712831F1F47E
:1022F000877E84612091E10220FF06C0382F38716B
:102300003830D9F4877F816021FF06C0282F2871DB
:102310002831D1F4877E816194FD877E0895282F2E
:1023200024712430F9F68B7F8860DCCF282F24714C
:10233000243101F78B7E8861DDCF382F3171313048
:1023400019F78E7F8860E0CF282F2171213121F786
:102350008E7E8861E1CF80E008950E94220E08956C
:102360000E94D4128FE39CE90197F1F700C00000AE
:102370000E94D41280E00E94EA1160FF04C00E9413
:10238000AD110E947F2408950E94B01108950E940B
:10239000290E811102C00E94D60E0E94350E809334
:1023A00093020E943F0E9093E1028093E0020E940C
:1023B000C4110E943A0E0E943E098091F7010E94CA
:1023C0005609089508950E94E211089508950E9403
:1023D000E611089594E0899FF0011124EA50FD4F21
:1023E00060817181828193810895089580EA8A9540
:1023F000F1F7089500C008950E94F6110895F89429
:10240000E82FE295EF70F0E031A1282F2F7081E0E6
:1024100090E001C0880F2A95EAF7982F90959323B2
:1024200091A392A1892B82A378940895CF93DF93EF
:10243000C9E8D1E089918F3F11F00E94FF1181E03E
:10244000CA39D807B9F7CAE9D1E089918F3F11F0AD
:102450000E94FF1181E0CF39D807B9F7DF91CF9102
:1024600008954F925F927F928F929F92AF92BF9208
:10247000CF92DF92EF92FF920F931F93CF93DF9350
:10248000B82E092F162F69017A01C62FD0E0CE0190
:1024900087579E4F2C01DC012C912F3F09F455C02A
:1024A000F894E22FE295EF70F0E031A12F7081E017
:1024B00090E001C0880F2A95EAF7932F982B91A3FB
:1024C00092A18095892382A378940E94FA114AE907
:1024D00051E0EB2DF02F6FE971E000E0460157016C
:1024E00080949094A094B094EA017990AE01808198
:1024F0009181A281B381DFEF7D16B9F1272D22955D
:102500002F7030E0E90128A130E0D72DDF7002C044
:1025100035952795DA95E2F720FD27C08C299D296E
:10252000AE29BF2980839183A283B38301E03496CF
:1025300064177507C9F6F20180818F3F11F00E9480
:10254000FF11602F812F0E94FC11DF91CF911F910D
:102550000F91FF90EF90DF90CF90BF90AF909F9042
:102560008F907F905F904F90089588219921AA21A4
:10257000BB2180839183A283B383D9CF0E9416129B
:1025800084E1E6EFF2E0DF01982F1D929A95E9F7DA
:10259000E2EEF2E0DF011D928A95E9F785E00E9404
:1025A00030130E94930408958F929F92AF92BF922E
:1025B000FF920F931F93CF93DF93CDB7DEB764974E
:1025C0000FB6F894DEBF0FBECDBF8E010F5F1F4F59
:1025D00084E1F80111928A95E9F7F12C812C912C74
:1025E00054018394A50194016F2DC8010E943112FA
:1025F000F394880C991CAA1CBB1CF1E1FF12F2CFCA
:1026000044E150E0B80182EE92E00E94A82C21E063
:10261000009709F420E0892B41F084E1F801A2EE53
:10262000B2E001900D928A95E1F745E066EF72E025
:1026300082EE92E00E943113182F0E949604812F9F
:1026400064960FB6F894DEBF0FBECDBFDF91CF9179
:102650001F910F91FF90BF90AF909F908F90089522
:102660000895CF92DF92EF92FF920F931F93CF9333
:102670006C017B01042F222349F081E080939602B4
:102680000E9434249093950280939402C091960204
:10269000C1110AC0C0E08C2FCF911F910F91FF9004
:1026A000EF90DF90CF9008958091940290919502E1
:1026B0000E944C24059770F384E0089F8001112448
:1026C000A801B601C7010E94A82C892B41F0A801DE
:1026D000B601C7010E94B52C10929602DCCFC0E073
:1026E000FBCF0E948E260E94150F0E949B26089504
:1026F0000E94A0260E94220F0E94BA2608950E94DE
:10270000CD230E9474260E94FB0E0E9471130E942A
:1027100078130E940B0FFBCF80919D0280FF0DC0AC
:102720006091070170E0660F771F6038710570F5E2
:102730006115710569F1862F089581FF07C06091C9
:10274000070184E0689FB0011124EFCF6091070179
:1027500082FD0AC080919C028823A9F02091060185
:1027600060910701821710F088E0ECCF869FC001CE
:10277000112433E0880F991F3A95E1F7622F70E03A
:102780000E94432CD2CF68E070E0D5CF8FE7089548
:1027900081E0089580919D0280FF0CC0609103014B
:1027A00070E075956795759567956115710549F1A7
:1027B000862F089581FF06C06091030170E0759532
:1027C0006795F3CF6091030182FD0BC090919B024E
:1027D0009923A1F06091020180910301961738F0CE
:1027E000682F70E06038710500F38FE70895899FC6
:1027F000C001112470E00E94432CF4CF61E070E02E
:10280000D7CF81E00895803F31F40E948C138195E9
:102810008093A1020895813F19F40E948C13F8CF90
:10282000823F31F40E948C1381958093A002089519
:10283000833F19F40E948C13F8CF893F29F40E943A
:10284000CA138093A20208958A3F21F40E94CA13FA
:102850008195F7CF8B3F31F40E94CA138195809305
:10286000A30208958C3F19F40E94CA13F8CF9CE08C
:10287000980F953070F4845F990B21E030E001C02F
:10288000220F8A95EAF780919F02822B80939F0204
:1028900008958D3F31F480919D02816080939D0267
:1028A00008958E3F21F480919D028260F7CF8F3F83
:1028B000B9F780919D028460F1CF4091A002803FE2
:1028C00059F48091A10287FF0DC01092A10241111D
:1028D0000BC010929C0208C0813F81F48091A1023C
:1028E00018169CF3442381F08091A2029091A302D8
:1028F000892B09F05AC010929B020895823F49F437
:1029000047FFF0CF1092A0028091A1028111ECCF7D
:10291000E0CF833F19F41416ACF3E4CF9091A202F8
:10292000893F29F41916F4F61092A202DBCF8A3FF0
:1029300019F497FFD7CFF8CF9091A3028B3F29F4DA
:1029400097FFD0CF1092A302CDCF8C3F19F4191668
:10295000CCF3C8CF9CE0980F953090F4845F990B2E
:1029600021E030E0B90102C0660F771F8A95E2F7D7
:10297000CB01809590919F02892380939F02B2CFD3
:102980008D3F31F480919D028E7F80939D02AACF6E
:102990008E3F21F480919D028D7FF7CF8F3F09F00C
:1029A000A1CF80919D028B7FF0CF08950E943424A7
:1029B0009C019091A0028091A102982B21F030936C
:1029C0009A02209399029091A2028091A302982BDF
:1029D00021F030939802209397028EE992E00E94B2
:1029E0008622089586E0EEE9F2E0DF011D928A95E5
:1029F000E9F710929C0210929B0210929D0208959A
:102A0000FC01828181110EC0838181110BC0848100
:102A1000811108C091E08581811101C090E0892F6A
:102A20008170089581E0FCCFA6E0B0E0EAE1F5E135
:102A30000C94732C86E0EEE9F2E0DE011196019031
:102A40000D928A95E1F71092A0021092A1021092C5
:102A5000A2021092A3028B819C81892B89F0809124
:102A6000990290919A020E944C24AC0190919C0290
:102A70009923C9F1809108018417150608F440C014
:102A80008D819E81892B91F080919702909198027F
:102A90000E944C24AC0190919B02992309F471C0CF
:102AA000809104018417150608F479C0BE016F5F98
:102AB0007F4F8EE992E00E948223811105C08EE94A
:102AC00092E00E94001581110E94D61486E0FE015A
:102AD0003196AEE9B2E001900D928A95E1F7269623
:102AE000E3E00C948F2C209109018AE0289F90014B
:102AF00011242417350720F69F5F90939C0202C093
:102B00009F3FD1F71B81112359F00E948C139FEF37
:102B100011160CF491E0899F802D11248093A0025E
:102B20001C81112359F00E948C139FEF11160CF495
:102B300091E0899F802D11248093A1023091A00201
:102B4000332309F49DCF2091A102222309F498CFC9
:102B500045EB3403C0011124992359F09093A0024E
:102B600045EB240390011124332339F03093A10263
:102B700087CF81E08093A002F3CF81E08093A10210
:102B80007FCF209105018AE0289F9001112424170E
:102B9000350708F08BCF9F5F90939B0202C09F3F49
:102BA000D1F71D81112359F00E94CA139FEF11160E
:102BB0000CF491E0899F802D11248093A2021E8144
:102BC000112359F00E94CA139FEF11160CF491E0E3
:102BD000899F802D11248093A3023091A202332378
:102BE00009F464CF2091A302222309F45FCF45EBBF
:102BF0003403C0011124992359F09093A20245EBAC
:102C0000240390011124332339F03093A3024ECFD3
:102C100081E08093A202F3CF81E08093A30246CFAC
:102C2000EF92FF920F931F93CF93DF93EB01E82F67
:102C3000D1110EC0442321F0F0E0E859FB4FE4919C
:102C40006E2F7E2F8E2FCDB7DEB7E6E00C948C2C46
:102C50000D2F10E0282F30E0442329F028593B4F56
:102C6000F901249130E0F6E0CF9FC0011124EFEF8D
:102C7000F0E0BF010E942F2CAB018C2F90E0880F59
:102C8000991FA5E5A49FB001A59F700D1124861B77
:102C9000970B982F990F980FBF01601B710B629FC4
:102CA000D001639FB00D729FB00D11248B2F9D9F9B
:102CB000B0011124672F7727EF01C61BD70BBE0188
:102CC000629FE001639FD00D729FD00D11247F01A0
:102CD000E91AF108E09EB001E19E700DF09E700DC2
:102CE0001124672F7727E61BF70BE29F8001E39FF4
:102CF000100DF29F100D1124E12F722F423051055B
:102D000099F048F44115510569F04130510581F0C1
:102D1000EB2F8D2F07C04430510569F080F046300D
:102D20005105B1F76E2F8FCFE22F7B2F812FFACF76
:102D3000E22F7D2FF7CFEB2F822F712FF3CF7B2F39
:102D4000822FED2FEFCF41E00E94101608950895D5
:102D50000E94A3160895CF93DF93762FE901682F81
:102D6000842F0E94A816798368838A83DF91CF918C
:102D7000089580910A03982F9E7F29F481708260C4
:102D800080930A0308958034E8F381708E63F8CF4E
:102D900088E090E00E94C62C0895CF92DF92EF92D7
:102DA000FF926B017C010E94B916B701A60188E071
:102DB00090E00E94E42CFF90EF90DF90CF90089578
:102DC00060910A0370910B0380910C0390910D03A5
:102DD0000E94CD160895EAE0F3E083E0808311823B
:102DE0008FEF8283838314826081718182819381DA
:102DF0000E94CD16089580910A0380FF02C0869537
:102E0000089580E0089590910E03933018F49F5F29
:102E100090930E03882351F060910A0370910B0385
:102E200080910C0390910D030E94CD16089581E0CE
:102E30000E940317089590910E03992319F0915061
:102E400090930E03882351F060910A0370910B0355
:102E500080910C0390910D030E94CD16089581E09E
:102E60000E941B17089580910E03089580930E030E
:102E7000662351F060910A0370910B0380910C035B
:102E800090910D030E94CD16089560E00E943617C0
:102E9000089580910B03089580910C03089580910B
:102EA0000D03089570E00E94CA1B089560910B0104
:102EB00080910A0380FF0BC080910A0123E0829F6A
:102EC000C0011124815F9C4F0E9452170895809188
:102ED0000C0190910D0123E0829FF0011124E15F2C
:102EE000FC4F891748F71182108212828F5F339648
:102EF000F8CF90910A0390FF0EC090910C012091A1
:102F00000D0133E0939FF0011124E15FFC4F921714
:102F100018F00E94561708958183608342839F5F53
:102F20003396F5CFA3E0B0E0E8E9F7E10C94742C18
:102F300090910A0390FF0AC09E012F5F3F4F0E94AD
:102F4000AB164B8169818A810E9479172396E2E052
:102F50000C94902CCF93DF93EC01EC81F0E0ED59D1
:102F6000FC4F4491EAE0F3E0628181810E94921774
:102F70008C818F5F8C83DF91CF910895CF93DF9306
:102F8000EC01EAE0F3E0438162818C810E949217B8
:102F90008C818F5F8C83DF91CF910895A3E0B0E0A7
:102FA000E4EDF7E10C94722C8C018091A402811164
:102FB0000AC09E012F5F3F4F4FEF6FEF0E94AB168D
:102FC0008A818093A402F8016481613069F0809164
:102FD000A40240E0662361F040E0623011F44091C9
:102FE000A40280E060E004C06091A40240E080E0C0
:102FF0000E947917F801848190E0019663E070E007
:103000000E94432C84832396E4E00C948E2CA3E04E
:10301000B0E0EDE0F8E10C946D2C082FD62EE42EF4
:10302000C22E90910A0390FF29C0E92FE695AE2F9A
:10303000B0E0A156BE4F8C918093AD029E7F92303E
:1030400009F59E012F5F3F4F802F0E94AB164B81E9
:1030500069818A810E94791700930B03D0920C0337
:10306000E0920D03CC2051F060910A0370910B03A4
:1030700080910C0390910D030E94CD162396E9E0F8
:103080000C94892C823019F4E0900D03E5CF863042
:1030900019F400910B03E0CF8930D9F38531E1F6C3
:1030A000E5516E2F6170B62EE695F0E0ED59FB4FBD
:1030B0001491F12C60910E01F61618F00E9456172B
:1030C000CBCFF19EC001112470E00E942F2C802FE5
:1030D000B11014C0860F20910C01622F6F0D77275D
:1030E000771F9B01220F331F260F371F215F3C4F95
:1030F0004E2D6D2D0E94AB16F394DCCF861BEBCFCB
:10310000EAE0F3E09181282F4381628188E0890F12
:103110000E940718089581E00E9480180895EAE04F
:10312000F3E09181282F4381628188EF890F0E940B
:103130000718089581E00E948F180895EAE0F3E0EF
:10314000628128E0620F08F46FEF282F43818181AC
:103150000E940718089581E00E949E180895EAE0F1
:10316000F3E0628128E0621B08F460E0282F4381CD
:1031700081810E940718089581E00E94AF18089588
:10318000EAE0F3E0438128E0420F08F44FEF282FF4
:10319000628181810E940718089581E00E94C01811
:1031A0000895EAE0F3E0438128E0421B08F440E0A0
:1031B000282F628181810E940718089581E00E9472
:1031C000D118089520E00E9407180895EF92FF9209
:1031D0001F93CF93DF93EC0110E0EE24EA94F12CDF
:1031E00060910E01161770F00E9456179A818C811B
:1031F00090FF27C08F5F8C83DF91CF911F91FF904D
:10320000EF90089520910C01422F410F5527551F33
:10321000CA019A01220F331F280F391F215F3C4F2B
:1032200070E0C7010E94432C962F8C8140910D03C2
:1032300060910C03199F800D11240E94AB161F5F33
:10324000CFCF8150D8CFB0E0A0E0E9E2F9E10C9413
:103250006D2CFC0182810FEF80FF01E010E0809176
:103260000E01181798F00E9456178091A5020130A0
:1032700009F04CC0811102C080910E0181508093F1
:10328000A502CDB7DEB7E9E00C94892CC0910C0102
:10329000C12ED12CCC0DDD2DD11DCE01880F991F53
:1032A000C80FD91FC15FDC4F198218821A8234E01F
:1032B000E32EF12CB12C8091A5028B0D893004F105
:1032C0008770082E000C990BC816D90691F48091CE
:1032D0000D038E9DA0018F9D500D1124559547958E
:1032E000559547959E0160910C0380910B030E94B8
:1032F000AB16B00EF1E0EF1AF108E9F61F5FAFCFA1
:1033000087FFDFCF90910E01890FDBCF90E0019610
:1033100060910E0170E00E94432CB1CFEAE0F3E02F
:1033200080818E7F808360817181828193810E9400
:10333000CD161092AE022FEF80E792E02150804030
:103340009040E1F700C000000E9456170895EAE09F
:10335000F3E080818E7F80831092AE022FEF80E7B2
:1033600092E0215080409040E1F700C000000E94B0
:103370005617089560910A03669570E04BE050E09F
:103380008FE091E00E949B2C892B19F481E08093BF
:10339000AE020E9434249093A7028093A60208955F
:1033A00090910A0390FF2BC09170811129C0926007
:1033B00090930A03662351F060910A0370910B0306
:1033C00080910C0390910D030E94CD1660910A0329
:1033D000669570E04BE050E08FE091E00E949B2CFE
:1033E000892BA9F01092AE0281E08093A90240914E
:1033F0000D0360910C0380910B030E94E218089565
:10340000803210F09E63D4CF880F982BD1CF0E94CA
:10341000BA19EACF682F90910A03969581E0890F37
:10342000803208F081E00E94D019089581E00E9466
:103430000A1A0895682F90910A0396958FEF890FC5
:1034400009F48FE10E94D019089581E00E941A1AB0
:10345000089561E00E94D0190895EAE0F3E08081C8
:103460008160808386950E94291A089580910A03BD
:1034700080FF03C00E948E1908950E942D1A08959E
:1034800060E00E94D01908958091AC0281112EC095
:103490000E94290E811104C00E94D60E0E94EB16D4
:1034A0000E94C81660930A0370930B0380930C0369
:1034B00090930D036E7F61F40E94EB160E94C81674
:1034C00060930A0370930B0380930C0390930D0396
:1034D0000E94B9161092AE0280910A0380FF03C0C9
:1034E00086950E94401A81E08093AC020895EAE03C
:1034F000F3E080818160808386950E94401A089560
:103500000F931F93CF93DF938091AE028823B9F17D
:103510008091AD02E0910A03E695E81BE093A802D2
:10352000823091F5F0E0E15AFC4FE491CE2FD0E0EB
:103530000AEA17E18091A902882361F01092A9029A
:103540000E9434249093A7028093A6021092AB02AB
:103550001092AA020E943424E091A602F091A702E0
:103560008E1B9F0B8F3F9F4750F4EC0FFD1FF09376
:10357000A702E093A60286EA92E0F8010995DF919E
:10358000CF911F910F910895863049F4F0E0E45AED
:10359000FC4FE491CE2FD0E00EEB17E1CBCF89307A
:1035A00051F4E695F0E0E75AFC4FE491CE2FD0E0DD
:1035B00006EE18E1BFCF8F3051F4E695F0E0EA5AFD
:1035C000FC4FE491CE2FD0E003E219E1B3CFC0ED80
:1035D000D7E007EA16E18F3109F0ACCFE4E5F3E07C
:1035E000C591D4910EEC17E1A5CFFA01811101C06C
:1035F000FB0109950895CF93DF93C82FD62F0E9422
:10360000FB168C1748F00E94FB168D1728F40E94B9
:10361000161ADF91CF9108958C2F0E94291AF9CFA5
:103620001F93CF93DF93EC01FB011281111173C043
:103630000E943B0D8272CC3CFCE5DF0709F491C08F
:1036400008F041C0C63CECE5DE0709F476C0D8F4CA
:10365000C33C9CE5D90709F466C030F4C23CDC45A4
:1036600009F45EC011E057C0C43C9CE5D90709F4D9
:103670005FC04AE958E16BE878E1C53CDC4591F769
:103680000E94F51A48C0C93CFCE5DF0709F45FC099
:1036900068F4C73CECE5DE0709F454C04BEA58E196
:1036A0006CEB78E1C83CDC4559F3DCCFCA3C9CE5C7
:1036B000D90709F451C04FE257E167E177E1CB3C0C
:1036C000DC45F1F2CFCFC13DFCE5DF0709F45AC07C
:1036D00098F4CE3C9CE5D90709F44CC008F446C0E8
:1036E000CF3CFCE5DF0709F44AC0C03DDC4509F0EA
:1036F000B9CF6EE089E040C0C43D9CE5D90709F42C
:1037000044C048F0C53DFCE5DF0709F441C0CD35B4
:10371000DD4509F0A7CF812FDF91CF911F9108954B
:103720000E94361AF8CF45E25AE166E17AE1A8CF65
:1037300046E15AE165E27AE1A3CF4BE858E16AE954
:1037400078E19ECF4CEB58E16BEA78E199CF4EEDF2
:1037500058E16DEC78E194CF4DEC58E16EED78E1F5
:103760008FCF47E157E16FE277E18ACF81E00E9496
:10377000291AD1CF65E082E00E94FB1ACCCF68E025
:1037800086E0FACF64E18FE0F7CF6EE185E1F4CF18
:103790008FE1EDCF209A45B14E7F55B15160EFB723
:1037A000F8949B01220F331F260F371F280F391F54
:1037B0002817390741F4EFBF8FE594E00197F1F73F
:1037C00000C000000895DC016D91CD0178E055B98D
:1037D000000000C067FF45B9660F000000C000C0D0
:1037E00000C045B900C07A9591F7E2CF83E290E03E
:1037F0000E94BE2C833289F484E290E00E94BE2CA9
:10380000883059F485E290E00E94BE2C91E080312E
:1038100009F090E0892F8170089580E0FCCFCF936C
:10382000C82F6FEF811163E283E290E00E94D22CF7
:103830006FEFC11168E084E290E00E94D22C6FEF3C
:10384000C11160E185E290E00E94D22CCF910895F1
:10385000089586E290E00E94BE2C682F70E090E010
:1038600080E008950895CF93C62F0E94321C6C2FDC
:1038700086E290E00E94D22CCF91089580E00E94D1
:103880000F1C60E070E0CB010E94331C0E943B20C3
:103890000E941A2181E00E940F1C08950E94281C9A
:1038A0000E94291C0E94321C0E94F61B811102C03A
:1038B0000E943E1C0895CF93FB01C281CC2309F1E5
:1038C0009C0122513F452031310520F582510E9453
:1038D0002A21C0E08C2FCF91089581E00E946D09CC
:1038E00043E062E081E00E948904F3CF81E00E941E
:1038F000790943E062E081E00E948904EBCF82E035
:10390000F6CF8031FFE59F0789F381319F45B9F3F9
:10391000C1E0E0CF8031EFE59E07F9F281319F45AC
:10392000C9F682E0DBCF2FEFFC0120830895CF930F
:10393000DF93EC0188818138E9F028F4803871F058
:10394000DF91CF9108958238C9F08338C9F70E947A
:10395000491789830E944C178A83F2CF0E944F1720
:103960002FEF829FC00111246FEF70E00E942F2C77
:103970006983E6CF0E94FB168983E2CF0E9433174A
:10398000FBCFCF93DF93EC018881813821F128F4BC
:10399000803869F0DF91CF910895823841F1833802
:1039A000C9F70E944F17482F6A81898111C0898108
:1039B0002FEF829FC00111246FEF70E00E942F2C27
:1039C000D62F0E944C17C82F0E9449174D2F6C2FDD
:1039D0000E94E218DFCF89810E94401A89818111FB
:1039E00003C00E94A719D6CF0E94771AD3CF89812E
:1039F0000E944517CFCFEF92FF920F931F93CF9363
:103A0000DF93EC01E62EDC01ED91CD01E150E331D5
:103A100008F0ADC0F0E0EC5EF24D0C94572C19822A
:103A20008AE08A836E2DCE010E944725CDB7DEB78E
:103A3000E6E00C948C2C8981823069F0833071F03F
:103A40008130E1F40E9440240E945D2C6A837B83D4
:103A50008C839D83E7CF0E94291CF6CF8E01F12C29
:103A60008F2D0E94EA11F801828373836483F3949B
:103A70000D5F1F4FF5E0FF12F3CFD4CF6E2DCE01B7
:103A80000E94931CCFCF89818230C1F76A817B81EC
:103A90008C819D810E945D2C0E94331CC3CF4B8181
:103AA0006A8189810E94FD1F9827892798279D8315
:103AB0008C83B8CF2C813D813227232732274B813D
:103AC0006A8189810E941F20ADCF0E943B20AACF2E
:103AD0000E94C11CA7CF0E94971CA4CF0E94E01691
:103AE000A1CF0E94CB2089839DCF0E94CD20982713
:103AF000892798279A83898395CF6B8170E0898184
:103B00009A81AE014C5F5F4F9827892798270E94C2
:103B1000D02088CF6B8170E089819A81AE014C5FA3
:103B20005F4F9827892798270E94F5207BCF0E9416
:103B30001A2178CF0E94EB1FD6CF6B8170E089816C
:103B40009A81AE014C5F5F4F9827892798270E9482
:103B5000752068CF6B8170E089819A81AE014C5FDE
:103B60005F4F9827892798270E9499205BCF8FEF76
:103B7000888358CFCF93DF93EC01FB0182818823A8
:103B800009F464C1C330FDE5DF07E0F5CA3F9CE5F9
:103B9000D90730F49E0122503C4524313105D8F537
:103BA0000E943F0E9093E1028093E002C231ECE567
:103BB000DE0709F41FC108F06EC0C9308CE5D807D4
:103BC00009F4F2C008F03FC0C530ECE5DE0709F4A7
:103BD000DBC058F5C3308CE5D80709F4CDC008F038
:103BE000CFC08091E0028160C230DC4509F4AEC0F4
:103BF0008091E0029091E1020E944D0E0E94EB083C
:103C000080E009C0C53AEDE5DE0751F238F4C1366F
:103C10009DE5D90729F2DF91CF9108959E012D5A94
:103C20003D4523303105B8F7BBCF8091E00280627B
:103C3000C730FCE5DF0709F489C008F4B1C0809102
:103C4000E002806483C0CD309CE5D90709F4BAC096
:103C500070F48091E0028E7FCB30FCE5DF0709F441
:103C600075C008F4A7C08091E0028D7F6FC0CF308F
:103C70009CE5D90709F4B6C008F4A8C0C031FCE53A
:103C8000DF0709F4B3C0C131DC4509F0B1CF809141
:103C9000E0028F7B5BC0CF3F9CE5D90709F4B4C03D
:103CA00098F5CA3FFCE5DF0709F472C0B8F4C431E7
:103CB0009CE5D90709F4B6C008F4A2C0C531DC45BB
:103CC00009F096CF8091E00282FB992790F921E0DC
:103CD000922790FB82F990FB83F938C0CC3F8CE5AA
:103CE000D80709F477C008F457C0CD3FECE5DE07EC
:103CF00009F474C08091E1028360CE3FDC4509F095
:103D000077CF8093E10274CFC1368DE5D80709F4EF
:103D100096C068F4C130EDE5DE0709F48CC008F404
:103D200077C0C230DD4509F063CF80E085C0CD3A71
:103D30009DE5D907E9F068F49091E002892F8E7F24
:103D400090FF8160C53ADD4509F052CF8093E002D3
:103D50004FCFCE3A8DE5D80789F1CF3ADD4509F04E
:103D600047CF9091E102892F877F93FF8860C9CF69
:103D70008091E1028860C5CF8091E0028260E6CF49
:103D80008091E0028460E2CF8091E0028860DECF23
:103D90008091E1028160B5CF8091E1028260B1CF74
:103DA0008091E0028061D2CF0E94EB088091E00216
:103DB0008068CCCF8091E0028C60C8CF8091E10216
:103DC000877F9FCF8091E0028B7FC0CF8091E00200
:103DD000877FBCCF8091E1028E7F93CF8091E102FB
:103DE0008D7F8FCF8091E0028F7EB0CF8091E002F7
:103DF0008F7DACCF0E94EB088091E0028F77A6CF39
:103E00008091E002837FA2CF8091E1028C7F79CF05
:103E10008091E102982F909591708E7F892B90FB75
:103E200081F96FCF0E94EB089091E002892F97FBF8
:103E300087F980588BCF81E00E94D90ED9CE90911E
:103E4000E002892F8F7E94FF806180CF81E0E3CEF6
:103E5000B0E0A0E0EEE2FFE10C946F2CE82FF0E080
:103E6000E859FA4FD490282F26952695269530E0CC
:103E7000F901E85FF94F0491877010E0082E02C045
:103E8000159507950A94E2F701701127F901E8509A
:103E9000FA4FE490F12C082E02C0F594E7940A94AE
:103EA000E2F791E0E922FF24F901E851FA4FC491C9
:103EB000D0E002C0D595C7958A95E2F7C170DD279D
:103EC0000115110519F081EE0E948C05E114F10431
:103ED00019F086EE0E948C058D2D0E948E06E1144D
:103EE000F10419F086EE0E941D060115110519F066
:103EF00081EE0E941D06CD2B19F08CE20E948E06E9
:103F0000CDB7DEB7E7E00C948B2CEF92FF920F93C6
:103F10001F93CF93DF93EC01162F0AE0888188234B
:103F200009F454C0813009F04EC08981813099F480
:103F30007E0122E0E20EF11C8A810E948E06E701DA
:103F40002196812F815050F3EFE9FFE03197F1F78F
:103F500000C00000F7CF823041F47E0182E0E80E1D
:103F6000F11C8A810E948C05EACF833041F47E01E6
:103F7000E2E0EE0EF11C8A810E941D06E0CF843043
:103F800011F02196DDCF2A81229690E080E0AE01EB
:103F90004F5F5F4F2053330B2A30310548F00197B4
:103FA00078F2EFE9FFE03197F1F700C00000F7CFBA
:103FB000089FB001099F700D1124C901860F971F3A
:103FC0002981EA01E4CF0E94281FBACFCDB7DEB71E
:103FD000E6E00C948C2C84E0089550E0440F551FCB
:103FE00092E2699F400D511D11249AEA899F400D6C
:103FF000511D1124CA01879608950F931F93CF93E3
:10400000DF938430C8F46530B8F44131A8F40E94DD
:10401000ED1F8C010E94BE2CC82FD0E0DC2FCC27D6
:10402000C80101960E94BE2C9E01282BC901DF9178
:10403000CF911F910F91089590E080E0F8CF0F93FA
:104040001F93CF93DF93122F032F843078F46530C2
:1040500068F4413158F40E94ED1FEC01602F0E947A
:10406000D22C612FCE0101960E94D22CDF91CF91EC
:104070001F910F910895B0E0A0E0E1E4F0E20C940C
:104080006C2C8CEAC82E80E0D82ED0E0C0E07601FF
:1040900010E01CC00E941B0421E030E08C171D06BC
:1040A00021F01CF0F50125913491402F612F8C2FC8
:1040B0000E941F2082E0A80EB11C0F5F013151F752
:1040C0001F5F82E2E80EF11C153019F0570100E085
:1040D000E1CF21968AEAC80ED11CC430D105B9F6C9
:1040E000CDB7DEB7EAE00C94882CEF92FF920F93E5
:1040F0001F93CF93DF93EC018A017C01E60EF71E3C
:10410000CE018796CE15DF0529F4CDB7DEB7E6E000
:104110000C948C2CC83A22E0D20740F40E94BE2CAA
:10412000F80180830F5F1F4F2196EACFF8011082BC
:10413000F9CFB0E0A0E0EFE9F0E20C946E2C7C0146
:104140006A018C01060F171FEC01CE018796C0177C
:10415000D10729F4CDB7DEB7E8E00C948A2CC83A31
:1041600022E0D20740F4FE01EE19FF09EC0DFD1D1F
:1041700060810E94D22C2196E8CF462F843040F4F3
:10418000753030F4613120F4672F0E94FD1F0895CF
:1041900090E080E0089580E1089581E391E0089542
:1041A000EF92FF920F931F93CF93DF93EC018A015D
:1041B0007C01E60EF71ECE0181539D4FCE15DF0523
:1041C00029F4CDB7DEB7E6E00C948C2CC13321E0A6
:1041D000D20740F40E94BE2CF80180830F5F1F4F6E
:1041E0002196E9CFF8011082F9CFB0E0A0E0EBEF23
:1041F000F0E20C946E2C7C016A018C01060F171FF3
:10420000EC01CE0181539D4FC017D10729F4CDB7E2
:10421000DEB7E8E00C948A2CC13321E0D20740F4E9
:10422000FE01EE19FF09EC0DFD1D60810E94D22CEC
:104230002196E7CFCF93DF93CFECD2E060E0CE01C1
:104240000E94D22C2196C11584E0D807B9F7DF91DE
:10425000CF910895A4E0B0E0E0E3F1E20C946F2C7C
:10426000F82E8FE08F1548F18FEF93E00E94BE2C5F
:10427000811123C00FEC12E0F11023C019821A82C1
:104280001B821C82DD24D39478018FEFE81AF80A90
:10429000C8010E94BE2C89831A82882371F09FEF87
:1042A000980F9330D8F48A83D9820E5F1F4FC701CD
:1042B0000E94BE2C8B83811112C02496E7E00C94DF
:1042C0008B2C011584E01807C1F3C8010E94BE2C95
:1042D000811101C0FA940F5F1F4FCECF870160E0BC
:1042E000CE0101960E94851FCFCFCF93DF93EB01C4
:1042F00086319C4511F50E943B0D9A81992399F0D6
:104300008A7A91E009F490E09093AF02811109C09C
:1043100089E20E94130D0E947C0D80E0DF91CF9115
:10432000089585E3F6CF8091AF02811104C089E240
:104330000E941B0DF0CF85E3FBCF81E0EFCF0F9301
:104340001F93CF93DF93C42FD22FFC018281882348
:10435000C9F04093B2020E9434249093B10280933A
:10436000B00280E28C0F883040F4C77081E001C059
:10437000880FCA95EAF70E949706DF91CF911F91A7
:104380000F9108951091B202141332C08091B002BF
:104390009091B1020E944C24883C910548F5C0E2FE
:1043A000CD0F1D17B9F080E2810F883040F41770EF
:1043B00081E001C0880F1A95EAF70E949E06C83076
:1043C00048F481E09D2F977001C0880F9A95EAF715
:1043D0000E949706802F0E948E06C83070F6D77014
:1043E00081E001C0880FDA95EAF70E949E06C5CFEA
:1043F00080E28C0F883008F6C77081E001C0880F1A
:10440000CA95EAF7F2CF0F939C01CB01233F4CE50D
:10441000340759F1A8F4283DFCE53F0701F1293D97
:104420004CE53407D1F1273D3C4591F406E221EEFD
:1044300041EE67ED7CE50E949F2180E00F91089599
:10444000253FFCE53F07E9F0B0F0263F3C45F9F099
:10445000FC018281882339F11092B202EFCF07E28A
:1044600025EE45EE68ED7CE5E6CF06E221EE40EE76
:1044700063EF7CE5E0CF07E225EE44EE64EF7CE5F8
:10448000DACF06E221EE42EE65EF7CE5D4CF07E21B
:1044900025EE46EE66EF7CE5CECF08E221E045EE64
:1044A00069ED7CE5C8CF81E0C9CF9093CF018093BF
:1044B000CE0108959093B8028093B7020895E091D9
:1044C000B702F091B802309729F00190F081E02D09
:1044D0000995089580E00895E091B702F091B8023F
:1044E000309799F020912601222359F02091E00283
:1044F00027FF07C0DC012C9111962C93119726E021
:104500002C930280F381E02D09950895E091B70284
:10451000F091B802309739F022E0DC012C9304804E
:10452000F581E02D099508952091B5023091B602EC
:104530002817390771F09093B6028093B502E09185
:10454000B702F091B802309721F00680F781E02D94
:10455000099508952091B3023091B40228173907C4
:1045600071F09093B4028093B302E091B702F0919E
:10457000B802309721F00084F185E02D0995089567
:10458000FC01329680912601882321F08091E0027F
:104590009EE187FF96E080E0915008F40895219114
:1045A0002223D1F38F5FF8CF662301F120912601FA
:1045B0002223F1F02091E00227FF1AC0462F4695F2
:1045C000469546954E3190F4677021E030E002C088
:1045D000220F331F6A95E2F7840F911DFC0182813F
:1045E00090E02823392381E0232B69F480E00895AB
:1045F000FC01329608962191261721F0E817F90759
:10460000D1F7F4CF81E008959C01FC0132969FEF31
:1046100080E04191461751F09F3F19F4411101C0CC
:10462000982F8F5F8630A9F79F3F09F40895290FCF
:10463000311D97FD3A95F90162830895FC01329688
:1046400008962191261303C0DF0111971C92E817E9
:10465000F907B9F70895E62FE695E695E695EE3168
:1046600068F4E80FF92FF11D677021E030E001C018
:10467000220F6A95EAF78281822B82830895E62FC2
:10468000E695E695E695EE3170F4E80FF92FF11D09
:10469000677021E030E001C0220F6A95EAF72095AB
:1046A000828128232283089520912601222339F034
:1046B0002091E00227FF03C00E942B2308950E944F
:1046C0000423089520912601222339F02091E0024D
:1046D00027FF03C00E943F2308950E941E230895D0
:1046E000FC01329680912601882351F08091E002EE
:1046F00087FF06C08EE1DF011D928A95E9F70895D4
:1047000086E0F9CF46E050E00E94A82C21E0892BFA
:1047100009F420E0822F089508950E948C230895C3
:10472000811106C081E08093B9020E948D23089513
:1047300082E0F9CF83E08093B9020E948D2308952F
:104740000E949023089581E08093B9020E948D23F6
:1047500008950E94A3230895089508950E94AD230B
:104760000895089508950E94AC230895CF930E9460
:10477000B1230E94D4120E94B223C0E08C2F0E9469
:10478000EA11672B682B692B31F4CF5FC530B1F785
:1047900080E0CF91089581E0FCCF85B7806885BF28
:1047A00085B7806885BF08951F921FB61F92112498
:1047B0008F939F93AF93BF938091BA02811113C0DF
:1047C0008091270390912803A0912903B0912A0397
:1047D0004196A11DB11D8093270390932803A093B8
:1047E0002903B0932A03BF91AF919F918F911F909E
:1047F0001FBE1F90189580912F03843031F10E94C5
:1048000012051092BA0288E190E020E40FB6F89405
:10481000A895809360000FBE2093600083B7817FCE
:10482000846083BF83B7816083BF7894889583B7A2
:104830008E7F83BF0FB6F894A89580916000886141
:1048400080936000109260000FBE08950E94EB08F4
:104850000E941705089582E084BD93E095BD9AEF0C
:1048600097BD80936E0008952FB7F8948091270329
:1048700090912803A0912903B0912A032FBF089596
:104880002FB7F89460912703709128038091290332
:1048900090912A032FBF08959C014FB7F8948091FF
:1048A000270390912803A0912903B0912A034FBFB9
:1048B000821B930B089578941F921FB61F921124A8
:1048C0008F939F93AF93BF93809127039091280379
:1048D000A0912903B0912A030196A11DB11D8093D7
:1048E000270390932803A0932903B0932A03BF9131
:1048F000AF919F918F911F901FBE1F90189581E0DF
:104900008093E00080E28093D8001092C9008FE18C
:104910009EE40197F1F700C0000087E090EBDC0116
:104920008093380390933903A0933A03B0933B03E9
:1049300088E19CE00FB6F894A895809360000FBEC4
:1049400090936000FFCF88E19CE00FB6F894A895A3
:10495000809360000FBE90936000FFCF8091DE02D5
:10496000089508959C0184E08093E9009FEF809171
:10497000E800915085FD06C085ED8A95F1F70000AD
:104980009111F5CF8091E80085FF0CC050E040E028
:1049900066E070E0C9010E9459278091E8008E7797
:1049A0008093E8000895CF93DF93EC018091260176
:1049B0008823B1F18091E00287FF32C060E284E099
:1049C0008093E9008FEF9091E800815095FD06C03B
:1049D00095ED9A95F1F700008111F5CF8091E800EF
:1049E00085FF1BC08091260170E050E040E08111FE
:1049F00004C050E040E068E070E0CE010E9459271A
:104A00008091E8008E778093E80080E2FE01AEEBB3
:104A1000B2E001900D928A95E1F7DF91CF91089570
:104A200068E081E0CDCF8093BB027093BD026093BC
:104A3000BC0280912F038430F9F48093E9008FEF5A
:104A40009091E800815095FD06C095ED9A95F1F79B
:104A500000008111F5CF8091E80085FF0DC050E086
:104A600040E063E070E08BEB92E00E945927809178
:104A7000E8008E778093E8000895BC0184E00E94EE
:104A800013250895BC0183E00E9413250895CF9358
:104A9000FC01603221F580912F03843001F5C09133
:104AA000E900CF702091EC00922F917020FD90E8EA
:104AB000C92B82E08093E9008091E80080FF0CC060
:104AC00050E040E060E270E0CF010E945927809101
:104AD000E8008E778093E800CF70C093E900CF9113
:104AE000089580912E03811109C00E9438290E94E7
:104AF00095298091E20084608093E20008951092ED
:104B00002E0308950E94A323089560912B0381E052
:104B1000611101C080E00E949A23089590912F03B3
:104B200081E0943009F080E060912B030E94A02383
:104B3000089542E061EC81E00E94B42842E261EC19
:104B400084E00E94B42842E261EC82E00E94B42832
:104B500042E260EC83E00E94B42890912F0381E050
:104B6000943009F080E060912B030E949023089517
:104B700080913103833009F463C030F48130E1F176
:104B8000823009F4A0C008958A3009F48CC08B30BB
:104B900009F471C0893009F052C08091300381322C
:104BA00009F04DC08091340390913503009719F0BE
:104BB000029709F044C08091E800877F8093E80065
:104BC0008091E80082FF37C09091F3008091F2005D
:104BD000029731F48091F100813011F0863021F498
:104BE0008091F1008093DE028091E8008B778093C2
:104BF000E8000E94E82823C080913003813AF9F44C
:104C00008091E800877F8093E80080913403909141
:104C10003503892B61F460E28EEB92E070E00E9434
:104C2000F7278091E8008B778093E800089560E093
:104C300090E080E0F3CF80912F038111C1CF0895E0
:104C400080913003813AD9F78091340390913503F4
:104C5000892BA9F78091E800877F8093E8008091F5
:104C6000E80080FFFCCF809126018093F1008091C5
:104C7000E8008E77BCCF80913003813201F78091BC
:104C8000340390913503892BD1F68091E800877F1A
:104C90008093E8000E94E8288091320380932601E7
:104CA0000E94EB08089580913003813241F6809193
:104CB000E800877F8093E8000E94E8288091330312
:104CC0008093DF02089580913003813A09F0B7CFD5
:104CD0008091E800877F8093E8008091E80080FF62
:104CE000FCCF8091DF02C1CF84B7877F84BF0FB62E
:104CF000F894A8958091600088618093600010927C
:104D000060000FBE80E890E00FB6F89480936100D9
:104D1000909361000FBE0E94A92308950E94382934
:104D20000E949529E2EEF0E080818460808378948F
:104D30000E94142C08958AE191E00E945A2208955D
:104D400080912F03853031F480912F03853019F045
:104D50000E94262408950E94FB2380912D0388231E
:104D600099F30E94B623882379F30E9443270E9477
:104D7000EB08EACFA0E2B0E0E0ECF6E20C94742C91
:104D800080912F03843009F583E08093E9008091BE
:104D9000E80082FF1AC08091E80090E085FF09C01A
:104DA00050E040E060E270E0CE0101960E94A8274A
:104DB00091E08091E8008B778093E800992329F0B7
:104DC00060E2CE0101960E94FB1CA096E2E00C94EA
:104DD000902C0E94EC260895292F3327233031058B
:104DE00021F168F42130310509F443C02230310546
:104DF00009F444C090E080E030E020E026C0213299
:104E0000310551F122323105A9F76330710590F770
:104E1000FB01EE0FFF1FEE53FE4F208131816154E5
:104E20007E4FFB01808190E010C099278130910571
:104E300081F0009729F00297E9F6E8E1F6E002C078
:104E4000E8E3F6E0849190E09F01FA01318320834A
:104E50000895EAE2F6E0F6CF6330710558F6660F82
:104E6000771FFB01E853FE4F2081318189E090E0FC
:104E7000ECCF82E190E027E936E0E7CF8BE590E0E8
:104E80002CE336E0E2CF80E189BD82E189BD09B43F
:104E900000FEFDCF8091D8008F7D8093D800809157
:104EA000E00082608093E0008091E00081FDFCCF13
:104EB0000895AF92BF92CF92DF92FF920F931F930C
:104EC000CF93DF936C01EB018A010E940729F82E32
:104ED000811123C00115110539F0F80180819181FC
:104EE000C81BD90BC80ED91EB12CA12C2097A9F034
:104EF0008091E80085FD22C08091E8008E77809344
:104F0000E80001151105A1F0F80180819181A80E3A
:104F1000B91EB182A08285E0F82E8F2DDF91CF914E
:104F20001F910F91FF90DF90CF90BF90AF900895A9
:104F30000E9407298823D1F2F82EEFCFF601819144
:104F40006F018093F1002197FFEFAF1ABF0ACECF18
:104F5000AF92BF92CF92DF92FF920F931F93CF93A6
:104F6000DF936C01EB018A010E940729F82E811161
:104F700023C00115110539F0F80180819181C81B0A
:104F8000D90BC80ED91EB12CA12C2097A9F0809165
:104F9000E80085FD22C08091E8008B778093E800CF
:104FA00001151105A1F0F80180819181A80EB91EAB
:104FB000B182A08285E0F82E8F2DDF91CF911F91D5
:104FC0000F91FF90DF90CF90BF90AF9008950E9417
:104FD00007298823D1F2F82EEFCF8091F100F60156
:104FE00081936F012197FFEFAF1ABF0ACECFFC016B
:104FF000809136039091370386179707A0F06115CB
:10500000710529F49091E8009E779093E80090E074
:105010006115710551F4911108C08091E80082FF7B
:1050200034C080E00895BC01F2CF80912F03882323
:10503000C1F18530C1F18091E80083FD30C08091DD
:10504000E80082FDEACF8091E80080FFE1CF809107
:10505000F3002091F200382F6115710519F0283006
:10506000310558F091E02830310509F090E02091A9
:10507000E8002E772093E800CBCF81918093F10058
:10508000615071092F5F3F4FE7CF80912F03882335
:1050900041F0853041F08091E80083FFBECF81E090
:1050A000089582E0089583E00895FC01809136031D
:1050B0009091370386179707A0F06115710529F4C1
:1050C0008091E8008E778093E80090E0611571058B
:1050D00051F4911108C08091E80082FF35C080E052
:1050E0000895BC01F2CF80912F038823C9F1853048
:1050F000C9F18091E80083FD31C08091E80082FD14
:10510000EACF8091E80080FFE1CF8091F300209109
:10511000F200382F6115710519F02830310558F06B
:1051200091E02830310509F090E08091E8008E7719
:105130008093E800CBCF84918093F1003196615049
:1051400071092F5F3F4FE6CF80912F03882341F0F5
:10515000853041F08091E80083FFBDCF81E0089564
:1051600082E0089583E00895982F973028F08F709B
:105170008093E90081E008959093E900242F762F31
:1051800050E0981731F07091EC002091ED005091B3
:10519000F00021FD02C09F5FE8CF3091EB003E7F21
:1051A0003093EB003091ED003D7F3093ED00309176
:1051B000EB0031603093EB007093EC002093ED0036
:1051C0005093F0002091EE0027FDE5CF80E0089598
:1051D0008091300387FF13C08091E80082FF06C0F2
:1051E0008091E8008B778093E80004C080912F03C2
:1051F0008111F2CF089580912F038823D9F38091F4
:10520000E80080FFF8CF8091E8008E77ECCF209106
:10521000E4003091E50095E6A9012091EC00822F91
:10522000817020FF06C08091E80080FF06C080E00A
:1052300008952091E80022FD1AC080912F03882351
:1052400089F0853089F08091EB0085FD0FC02091B9
:10525000E4003091E50042175307F9F29150E1F66E
:1052600084E0089582E0089583E0089581E0089540
:105270000E94A7290E94AF29E0EEF0E080818160C2
:105280008083E8EDF0E080818F77808319BCA7ED03
:10529000B0E08C918E7F8C9380818F7E8083109282
:1052A0002E0308950F931F93CF93DF930E94A72996
:1052B0000E94AF29C8EDD0E088818F7788838881EC
:1052C0008068888388818F7D888319BC10922F0322
:1052D00010922B0310922D0310922C0300EE10E07D
:1052E000F80180818B7F808388818160888342E0A0
:1052F00060E080E00E94B428E1EEF0E080818E7FE3
:105300008083E2EEF0E0808181608083808188602C
:105310008083F80180818E7F80838881806188838B
:10532000DF91CF911F910F910895E8EDF0E080811A
:105330008F7E8083E7EDF0E080818160808384E070
:1053400082BF81E080932E030E9452290895E8EDE8
:10535000F0E080818E7F80831092E20008951092A9
:10536000DA001092E10008951F920F920FB60F928B
:1053700011242F933F934F935F936F937F938F935A
:105380009F93AF93BF93EF93FF938091E10082FFD0
:105390000BC08091E20082FF07C08091E1008B7F0B
:1053A0008093E1000E94132C8091DA0080FF19C0E5
:1053B0008091D80080FF15C08091DA008E7F8093A5
:1053C000DA008091D90080FF96C080E189BD82E13A
:1053D00089BD09B400FEFDCF81E080932F030E94B8
:1053E00071258091E10080FF19C08091E20080FF6B
:1053F00015C08091E2008E7F8093E2008091E200F0
:1054000080618093E2008091D80080628093D80010
:1054100019BC85E080932F030E9485258091E100CF
:1054200084FF2BC08091E20084FF27C080E189BD0A
:1054300082E189BD89B5982F917080FFFBCF809163
:10544000D8008F7D8093D8008091E1008F7E80937B
:10545000E1008091E2008F7E8093E2008091E20083
:1054600081608093E20080912B03882309F449C076
:1054700084E080932F030E948E258091E10083FFBA
:1054800029C08091E20083FF25C08091E100877FE1
:105490008093E10082E080932F0310922B03809190
:1054A000E1008E7F8093E1008091E2008E7F809307
:1054B000E2008091E20080618093E20042E060E0DF
:1054C00080E00E94B4288091F00088608093F00012
:1054D0000E948225FF91EF91BF91AF919F918F9193
:1054E0007F916F915F914F913F912F910F900FBEE0
:1054F0000F901F90189519BC10922F030E947F25C2
:1055000070CF8091E30087FD93E090932F03B3CF9A
:105510001F920F920FB60F9211242F933F934F9328
:105520005F936F937F938F939F93AF93BF93CF932B
:10553000DF93EF93FF93D091E900DF708091EC004F
:10554000C82FC17080FDC0E81092E9008091F00082
:10555000877F8093F00078940E94CC2A1092E90013
:105560008091F00088608093F000CD2BCF70C093C5
:10557000E900FF91EF91DF91CF91BF91AF919F91A2
:105580008F917F916F915F914F913F912F910F90EC
:105590000FBE0F901F901895AAE2B0E0E2EDFAE27C
:1055A0000C94732C80E393E02091F100FC01219393
:1055B000CF01F3E088339F07B9F70E94B8258091A7
:1055C000E80083FF1EC180913003909131039A302F
:1055D00008F017C1E92FF0E0E95DF24D0C94572C6B
:1055E000803899F0823809F00CC1809134038F70B3
:1055F000873008F006C18093E9008091EB0085FBBD
:10560000882780F91092E90006C080912C039091C0
:105610002D03911182609091E800977F9093E800AC
:105620008093F1001092F1008091E8008E77E5C040
:10563000882309F4D3C0823009F0E3C0809132039B
:105640008111D6C0809134038F702FEF280F263040
:1056500008F0D7C08093E9002091EB0020FFC8C07C
:10566000933031F48091EB0080628093EB00C0C0F6
:105670009091EB0090619093EB0021E030E001C04D
:10568000220F8A95EAF72093EA001092EA008091AF
:10569000EB008860EACF8111B4C0109132031F770C
:1056A0008091E3008078812B8093E3008091E80073
:1056B000877F8093E8000E94E8288091E80080FFBF
:1056C000FCCF8091E30080688093E30082E01111B9
:1056D00083E080932F0395C08058823008F091C0FA
:1056E00080913203909133038C3D23E09207A1F522
:1056F00083E08A838AE289834FB7F894DE011396A8
:1057000020E03EE051E2E32FF0E050935700E491B7
:1057100020FF03C0E295EF703F5FEF708E2F90E0A7
:10572000EA30C0F0C7968D939D932F5F243159F7CF
:105730004FBF8091E800877F8093E8006AE270E0C5
:10574000CE0101960E94F7278091E8008B77809325
:10575000E80057C0C096E7CF6091340370913503DD
:10576000AE014F5F5F4F0E94E926BC01892B09F40F
:1057700048C09091E800977F9093E80089819A81D2
:105780000E945528E1CF8038E1F58091E800877FBD
:105790008093E80080912B038093F10045CF811125
:1057A00030C090913203923060F58091E800877F9D
:1057B0008093E80090932B030E94E82880912B03AC
:1057C000882311F084E005C08091E30087FDFACFC3
:1057D00081E080932F030E94992513C080913203AA
:1057E000813079F481E0933009F080E080932D03DB
:1057F0001092E9008091E800877F8093E8000E9482
:10580000E8288091E80083FF0AC08091E800877F44
:105810008093E8008091EB0080628093EB00AA9671
:10582000E3E00C948F2C0895CF9380912F0388236D
:10583000A1F0C091E900CF709091EC00892F8170A8
:1058400090FD80E8C82B1092E9008091E80083FD6C
:105850000E94CC2ACF70C093E900CF910895AA1B73
:10586000BB1B51E107C0AA1FBB1FA617B70710F04B
:10587000A61BB70B881F991F5A95A9F7809590957D
:10588000BC01CD01089597FB072E16F4009407D0B4
:1058900077FD09D00E942F2C07FC05D03EF490958F
:1058A00081959F4F0895709561957F4F0895EE0FF4
:1058B000FF1F0590F491E02D099469279627692729
:1058C00078278727782708952F923F924F925F92EB
:1058D0006F927F928F929F92AF92BF92CF92DF9200
:1058E000EF92FF920F931F93CF93DF93CDB7DEB765
:1058F000CA1BDB0B0FB6F894DEBF0FBECDBF0994F9
:105900002A88398848885F846E847D848C849B844F
:10591000AA84B984C884DF80EE80FD800C811B815D
:10592000AA81B981CE0FD11D0FB6F894DEBF0FBE8C
:10593000CDBFED010895FC014150504030F0019081
:105940000616D1F73197CF01089588279927089532
:10595000FB01DC0104C08D910190801921F44150BC
:105960005040C8F7881B990B0895FB01DC0102C069
:1059700001900D9241505040D8F70895F999FECF0B
:1059800092BD81BDF89A992780B50895A6E1B0E04F
:1059900044E050E00C94F82CA8E1B0E042E050E084
:1059A0000C94F82C262FF999FECF92BD81BDF89A60
:1059B000019700B4021639F01FBA20BD0FB6F89453
:1059C000FA9AF99A0FBE08950396272F0E94D32CB6
:1059D0000E94D22C252F0E94D32C242F0C94D32C40
:1059E0000196272F0E94D32C0C94D22CDC01CB01E2
:1059F000FC01F999FECF06C0F2BDE1BDF89A3196DF
:105A000000B40D9241505040B8F70895F894FFCF7C
:105A1000E006E006110711079E07BA074007400796
:105A2000C5072C083B083B080F1D1B1D431D4F1DC0
:105A30005A1D651D681D6B1D6E1DB71DB71D711D9F
:105A4000751D7D1D8A1D971D9A1D9D1DAA1DF02A7D
:105A5000182B012C182B012C4B2B6C2B012CC32B3E
:025A6000CF2B4A
:105A62005302280850011E0A140100080008080108
:105A720015161718191A1B1C1D1EAE24D324B22486
:105A820042253D25B12401E200E900EA00B500B655
:105A920000B700CD008301CC008A0192019401215C
:105AA20002230224022502260227022A02B300B49C
:105AB200006F007000818283E200E900EA00B50015
:105AC200B600B700CD008301CC008A019201940197
:105AD2002102230224022502260227022A02B300FF
